{
	"contracts/Week5/ForAndWhileLoops.sol": {
		"ForAndWhileLoops": {
			"abi": [
				{
					"inputs": [],
					"name": "loops",
					"outputs": [],
					"stateMutability": "pure",
					"type": "function"
				},
				{
					"inputs": [
						{
							"internalType": "uint256",
							"name": "_n",
							"type": "uint256"
						}
					],
					"name": "sum",
					"outputs": [
						{
							"internalType": "uint256",
							"name": "",
							"type": "uint256"
						}
					],
					"stateMutability": "pure",
					"type": "function"
				}
			],
			"devdoc": {
				"kind": "dev",
				"methods": {},
				"version": 1
			},
			"evm": {
				"assembly": "    /* \"contracts/Week5/ForAndWhileLoops.sol\":57:810  contract ForAndWhileLoops {... */\n  mstore(0x40, 0x80)\n  callvalue\n  dup1\n  iszero\n  tag_1\n  jumpi\n  0x00\n  dup1\n  revert\ntag_1:\n  pop\n  dataSize(sub_0)\n  dup1\n  dataOffset(sub_0)\n  0x00\n  codecopy\n  0x00\n  return\nstop\n\nsub_0: assembly {\n        /* \"contracts/Week5/ForAndWhileLoops.sol\":57:810  contract ForAndWhileLoops {... */\n      mstore(0x40, 0x80)\n      callvalue\n      dup1\n      iszero\n      tag_1\n      jumpi\n      0x00\n      dup1\n      revert\n    tag_1:\n      pop\n      jumpi(tag_2, lt(calldatasize, 0x04))\n      shr(0xe0, calldataload(0x00))\n      dup1\n      0x188b85b4\n      eq\n      tag_3\n      jumpi\n      dup1\n      0x938b9ceb\n      eq\n      tag_4\n      jumpi\n    tag_2:\n      0x00\n      dup1\n      revert\n        /* \"contracts/Week5/ForAndWhileLoops.sol\":644:808  function sum(uint _n) external pure returns (uint){... */\n    tag_3:\n      tag_5\n      0x04\n      dup1\n      calldatasize\n      sub\n      dup2\n      add\n      swap1\n      tag_6\n      swap2\n      swap1\n      tag_7\n      jump\t// in\n    tag_6:\n      tag_8\n      jump\t// in\n    tag_5:\n      mload(0x40)\n      tag_9\n      swap2\n      swap1\n      tag_10\n      jump\t// in\n    tag_9:\n      mload(0x40)\n      dup1\n      swap2\n      sub\n      swap1\n      return\n        /* \"contracts/Week5/ForAndWhileLoops.sol\":89:638  function loops () external pure {... */\n    tag_4:\n      tag_11\n      tag_12\n      jump\t// in\n    tag_11:\n      stop\n        /* \"contracts/Week5/ForAndWhileLoops.sol\":644:808  function sum(uint _n) external pure returns (uint){... */\n    tag_8:\n        /* \"contracts/Week5/ForAndWhileLoops.sol\":689:693  uint */\n      0x00\n        /* \"contracts/Week5/ForAndWhileLoops.sol\":704:710  uint s */\n      dup1\n        /* \"contracts/Week5/ForAndWhileLoops.sol\":726:732  uint i */\n      0x00\n        /* \"contracts/Week5/ForAndWhileLoops.sol\":735:736  1 */\n      0x01\n        /* \"contracts/Week5/ForAndWhileLoops.sol\":726:736  uint i = 1 */\n      swap1\n      pop\n        /* \"contracts/Week5/ForAndWhileLoops.sol\":721:783  for (uint i = 1; i<= _n; i++ ){... */\n    tag_14:\n        /* \"contracts/Week5/ForAndWhileLoops.sol\":742:744  _n */\n      dup4\n        /* \"contracts/Week5/ForAndWhileLoops.sol\":738:739  i */\n      dup2\n        /* \"contracts/Week5/ForAndWhileLoops.sol\":738:744  i<= _n */\n      gt\n        /* \"contracts/Week5/ForAndWhileLoops.sol\":721:783  for (uint i = 1; i<= _n; i++ ){... */\n      tag_15\n      jumpi\n        /* \"contracts/Week5/ForAndWhileLoops.sol\":770:771  i */\n      dup1\n        /* \"contracts/Week5/ForAndWhileLoops.sol\":765:771  s += i */\n      dup3\n      tag_17\n      swap2\n      swap1\n      tag_18\n      jump\t// in\n    tag_17:\n      swap2\n      pop\n        /* \"contracts/Week5/ForAndWhileLoops.sol\":746:749  i++ */\n      dup1\n      dup1\n      tag_19\n      swap1\n      tag_20\n      jump\t// in\n    tag_19:\n      swap2\n      pop\n      pop\n        /* \"contracts/Week5/ForAndWhileLoops.sol\":721:783  for (uint i = 1; i<= _n; i++ ){... */\n      jump(tag_14)\n    tag_15:\n      pop\n        /* \"contracts/Week5/ForAndWhileLoops.sol\":799:800  s */\n      dup1\n        /* \"contracts/Week5/ForAndWhileLoops.sol\":792:800  return s */\n      swap2\n      pop\n      pop\n        /* \"contracts/Week5/ForAndWhileLoops.sol\":644:808  function sum(uint _n) external pure returns (uint){... */\n      swap2\n      swap1\n      pop\n      jump\t// out\n        /* \"contracts/Week5/ForAndWhileLoops.sol\":89:638  function loops () external pure {... */\n    tag_12:\n        /* \"contracts/Week5/ForAndWhileLoops.sol\":136:142  uint i */\n      0x00\n        /* \"contracts/Week5/ForAndWhileLoops.sol\":131:540  for (uint i = 0; i< 10; i++) {... */\n    tag_22:\n        /* \"contracts/Week5/ForAndWhileLoops.sol\":151:153  10 */\n      0x0a\n        /* \"contracts/Week5/ForAndWhileLoops.sol\":148:149  i */\n      dup2\n        /* \"contracts/Week5/ForAndWhileLoops.sol\":148:153  i< 10 */\n      lt\n        /* \"contracts/Week5/ForAndWhileLoops.sol\":131:540  for (uint i = 0; i< 10; i++) {... */\n      iszero\n      tag_23\n      jumpi\n        /* \"contracts/Week5/ForAndWhileLoops.sol\":204:205  3 */\n      0x03\n        /* \"contracts/Week5/ForAndWhileLoops.sol\":199:200  i */\n      dup2\n        /* \"contracts/Week5/ForAndWhileLoops.sol\":199:205  i == 3 */\n      eq\n        /* \"contracts/Week5/ForAndWhileLoops.sol\":195:248  if (i == 3 ){... */\n      iszero\n      tag_25\n      jumpi\n        /* \"contracts/Week5/ForAndWhileLoops.sol\":225:233  continue */\n      jump(tag_24)\n        /* \"contracts/Week5/ForAndWhileLoops.sol\":195:248  if (i == 3 ){... */\n    tag_25:\n        /* \"contracts/Week5/ForAndWhileLoops.sol\":295:296  5 */\n      0x05\n        /* \"contracts/Week5/ForAndWhileLoops.sol\":291:292  i */\n      dup2\n        /* \"contracts/Week5/ForAndWhileLoops.sol\":291:296  i ==5 */\n      eq\n        /* \"contracts/Week5/ForAndWhileLoops.sol\":287:337  if (i ==5 ){... */\n      iszero\n      tag_26\n      jumpi\n        /* \"contracts/Week5/ForAndWhileLoops.sol\":316:321  break */\n      jump(tag_23)\n        /* \"contracts/Week5/ForAndWhileLoops.sol\":287:337  if (i ==5 ){... */\n    tag_26:\n        /* \"contracts/Week5/ForAndWhileLoops.sol\":512:515  i++ */\n      dup1\n      dup1\n      0x01\n      add\n      swap2\n      pop\n      pop\n        /* \"contracts/Week5/ForAndWhileLoops.sol\":131:540  for (uint i = 0; i< 10; i++) {... */\n    tag_24:\n        /* \"contracts/Week5/ForAndWhileLoops.sol\":155:158  i++ */\n      dup1\n      dup1\n      tag_27\n      swap1\n      tag_20\n      jump\t// in\n    tag_27:\n      swap2\n      pop\n      pop\n        /* \"contracts/Week5/ForAndWhileLoops.sol\":131:540  for (uint i = 0; i< 10; i++) {... */\n      jump(tag_22)\n    tag_23:\n      pop\n        /* \"contracts/Week5/ForAndWhileLoops.sol\":549:555  uint j */\n      0x00\n        /* \"contracts/Week5/ForAndWhileLoops.sol\":569:632  while (j<10) {... */\n    tag_28:\n        /* \"contracts/Week5/ForAndWhileLoops.sol\":578:580  10 */\n      0x0a\n        /* \"contracts/Week5/ForAndWhileLoops.sol\":576:577  j */\n      dup2\n        /* \"contracts/Week5/ForAndWhileLoops.sol\":576:580  j<10 */\n      lt\n        /* \"contracts/Week5/ForAndWhileLoops.sol\":569:632  while (j<10) {... */\n      iszero\n      tag_29\n      jumpi\n        /* \"contracts/Week5/ForAndWhileLoops.sol\":617:620  j++ */\n      dup1\n      dup1\n      tag_30\n      swap1\n      tag_20\n      jump\t// in\n    tag_30:\n      swap2\n      pop\n      pop\n        /* \"contracts/Week5/ForAndWhileLoops.sol\":569:632  while (j<10) {... */\n      jump(tag_28)\n    tag_29:\n        /* \"contracts/Week5/ForAndWhileLoops.sol\":121:638  {... */\n      pop\n        /* \"contracts/Week5/ForAndWhileLoops.sol\":89:638  function loops () external pure {... */\n      jump\t// out\n        /* \"#utility.yul\":7:146   */\n    tag_32:\n        /* \"#utility.yul\":53:58   */\n      0x00\n        /* \"#utility.yul\":91:97   */\n      dup2\n        /* \"#utility.yul\":78:98   */\n      calldataload\n        /* \"#utility.yul\":69:98   */\n      swap1\n      pop\n        /* \"#utility.yul\":107:140   */\n      tag_34\n        /* \"#utility.yul\":134:139   */\n      dup2\n        /* \"#utility.yul\":107:140   */\n      tag_35\n      jump\t// in\n    tag_34:\n        /* \"#utility.yul\":7:146   */\n      swap3\n      swap2\n      pop\n      pop\n      jump\t// out\n        /* \"#utility.yul\":152:481   */\n    tag_7:\n        /* \"#utility.yul\":211:217   */\n      0x00\n        /* \"#utility.yul\":260:262   */\n      0x20\n        /* \"#utility.yul\":248:257   */\n      dup3\n        /* \"#utility.yul\":239:246   */\n      dup5\n        /* \"#utility.yul\":235:258   */\n      sub\n        /* \"#utility.yul\":231:263   */\n      slt\n        /* \"#utility.yul\":228:347   */\n      iszero\n      tag_37\n      jumpi\n        /* \"#utility.yul\":266:345   */\n      tag_38\n      tag_39\n      jump\t// in\n    tag_38:\n        /* \"#utility.yul\":228:347   */\n    tag_37:\n        /* \"#utility.yul\":386:387   */\n      0x00\n        /* \"#utility.yul\":411:464   */\n      tag_40\n        /* \"#utility.yul\":456:463   */\n      dup5\n        /* \"#utility.yul\":447:453   */\n      dup3\n        /* \"#utility.yul\":436:445   */\n      dup6\n        /* \"#utility.yul\":432:454   */\n      add\n        /* \"#utility.yul\":411:464   */\n      tag_32\n      jump\t// in\n    tag_40:\n        /* \"#utility.yul\":401:464   */\n      swap2\n      pop\n        /* \"#utility.yul\":357:474   */\n      pop\n        /* \"#utility.yul\":152:481   */\n      swap3\n      swap2\n      pop\n      pop\n      jump\t// out\n        /* \"#utility.yul\":487:605   */\n    tag_41:\n        /* \"#utility.yul\":574:598   */\n      tag_43\n        /* \"#utility.yul\":592:597   */\n      dup2\n        /* \"#utility.yul\":574:598   */\n      tag_44\n      jump\t// in\n    tag_43:\n        /* \"#utility.yul\":569:572   */\n      dup3\n        /* \"#utility.yul\":562:599   */\n      mstore\n        /* \"#utility.yul\":487:605   */\n      pop\n      pop\n      jump\t// out\n        /* \"#utility.yul\":611:833   */\n    tag_10:\n        /* \"#utility.yul\":704:708   */\n      0x00\n        /* \"#utility.yul\":742:744   */\n      0x20\n        /* \"#utility.yul\":731:740   */\n      dup3\n        /* \"#utility.yul\":727:745   */\n      add\n        /* \"#utility.yul\":719:745   */\n      swap1\n      pop\n        /* \"#utility.yul\":755:826   */\n      tag_46\n        /* \"#utility.yul\":823:824   */\n      0x00\n        /* \"#utility.yul\":812:821   */\n      dup4\n        /* \"#utility.yul\":808:825   */\n      add\n        /* \"#utility.yul\":799:805   */\n      dup5\n        /* \"#utility.yul\":755:826   */\n      tag_41\n      jump\t// in\n    tag_46:\n        /* \"#utility.yul\":611:833   */\n      swap3\n      swap2\n      pop\n      pop\n      jump\t// out\n        /* \"#utility.yul\":920:1225   */\n    tag_18:\n        /* \"#utility.yul\":960:963   */\n      0x00\n        /* \"#utility.yul\":979:999   */\n      tag_50\n        /* \"#utility.yul\":997:998   */\n      dup3\n        /* \"#utility.yul\":979:999   */\n      tag_44\n      jump\t// in\n    tag_50:\n        /* \"#utility.yul\":974:999   */\n      swap2\n      pop\n        /* \"#utility.yul\":1013:1033   */\n      tag_51\n        /* \"#utility.yul\":1031:1032   */\n      dup4\n        /* \"#utility.yul\":1013:1033   */\n      tag_44\n      jump\t// in\n    tag_51:\n        /* \"#utility.yul\":1008:1033   */\n      swap3\n      pop\n        /* \"#utility.yul\":1167:1168   */\n      dup3\n        /* \"#utility.yul\":1099:1165   */\n      0xffffffffffffffffffffffffffffffffffffffffffffffffffffffffffffffff\n        /* \"#utility.yul\":1095:1169   */\n      sub\n        /* \"#utility.yul\":1092:1093   */\n      dup3\n        /* \"#utility.yul\":1089:1170   */\n      gt\n        /* \"#utility.yul\":1086:1193   */\n      iszero\n      tag_52\n      jumpi\n        /* \"#utility.yul\":1173:1191   */\n      tag_53\n      tag_54\n      jump\t// in\n    tag_53:\n        /* \"#utility.yul\":1086:1193   */\n    tag_52:\n        /* \"#utility.yul\":1217:1218   */\n      dup3\n        /* \"#utility.yul\":1214:1215   */\n      dup3\n        /* \"#utility.yul\":1210:1219   */\n      add\n        /* \"#utility.yul\":1203:1219   */\n      swap1\n      pop\n        /* \"#utility.yul\":920:1225   */\n      swap3\n      swap2\n      pop\n      pop\n      jump\t// out\n        /* \"#utility.yul\":1231:1308   */\n    tag_44:\n        /* \"#utility.yul\":1268:1275   */\n      0x00\n        /* \"#utility.yul\":1297:1302   */\n      dup2\n        /* \"#utility.yul\":1286:1302   */\n      swap1\n      pop\n        /* \"#utility.yul\":1231:1308   */\n      swap2\n      swap1\n      pop\n      jump\t// out\n        /* \"#utility.yul\":1314:1547   */\n    tag_20:\n        /* \"#utility.yul\":1353:1356   */\n      0x00\n        /* \"#utility.yul\":1376:1400   */\n      tag_57\n        /* \"#utility.yul\":1394:1399   */\n      dup3\n        /* \"#utility.yul\":1376:1400   */\n      tag_44\n      jump\t// in\n    tag_57:\n        /* \"#utility.yul\":1367:1400   */\n      swap2\n      pop\n        /* \"#utility.yul\":1422:1488   */\n      0xffffffffffffffffffffffffffffffffffffffffffffffffffffffffffffffff\n        /* \"#utility.yul\":1415:1420   */\n      dup3\n        /* \"#utility.yul\":1412:1489   */\n      eq\n        /* \"#utility.yul\":1409:1512   */\n      iszero\n      tag_58\n      jumpi\n        /* \"#utility.yul\":1492:1510   */\n      tag_59\n      tag_54\n      jump\t// in\n    tag_59:\n        /* \"#utility.yul\":1409:1512   */\n    tag_58:\n        /* \"#utility.yul\":1539:1540   */\n      0x01\n        /* \"#utility.yul\":1532:1537   */\n      dup3\n        /* \"#utility.yul\":1528:1541   */\n      add\n        /* \"#utility.yul\":1521:1541   */\n      swap1\n      pop\n        /* \"#utility.yul\":1314:1547   */\n      swap2\n      swap1\n      pop\n      jump\t// out\n        /* \"#utility.yul\":1553:1733   */\n    tag_54:\n        /* \"#utility.yul\":1601:1678   */\n      0x4e487b7100000000000000000000000000000000000000000000000000000000\n        /* \"#utility.yul\":1598:1599   */\n      0x00\n        /* \"#utility.yul\":1591:1679   */\n      mstore\n        /* \"#utility.yul\":1698:1702   */\n      0x11\n        /* \"#utility.yul\":1695:1696   */\n      0x04\n        /* \"#utility.yul\":1688:1703   */\n      mstore\n        /* \"#utility.yul\":1722:1726   */\n      0x24\n        /* \"#utility.yul\":1719:1720   */\n      0x00\n        /* \"#utility.yul\":1712:1727   */\n      revert\n        /* \"#utility.yul\":1862:1979   */\n    tag_39:\n        /* \"#utility.yul\":1971:1972   */\n      0x00\n        /* \"#utility.yul\":1968:1969   */\n      dup1\n        /* \"#utility.yul\":1961:1973   */\n      revert\n        /* \"#utility.yul\":1985:2107   */\n    tag_35:\n        /* \"#utility.yul\":2058:2082   */\n      tag_65\n        /* \"#utility.yul\":2076:2081   */\n      dup2\n        /* \"#utility.yul\":2058:2082   */\n      tag_44\n      jump\t// in\n    tag_65:\n        /* \"#utility.yul\":2051:2056   */\n      dup2\n        /* \"#utility.yul\":2048:2083   */\n      eq\n        /* \"#utility.yul\":2038:2101   */\n      tag_66\n      jumpi\n        /* \"#utility.yul\":2097:2098   */\n      0x00\n        /* \"#utility.yul\":2094:2095   */\n      dup1\n        /* \"#utility.yul\":2087:2099   */\n      revert\n        /* \"#utility.yul\":2038:2101   */\n    tag_66:\n        /* \"#utility.yul\":1985:2107   */\n      pop\n      jump\t// out\n\n    auxdata: 0xa2646970667358221220d10d41b1bf1640b53dfcce99897972bbcc7243ea7f259789aff726476548d06f64736f6c63430008070033\n}\n",
				"bytecode": {
					"linkReferences": {},
					"object": "608060405234801561001057600080fd5b506102ae806100206000396000f3fe608060405234801561001057600080fd5b50600436106100365760003560e01c8063188b85b41461003b578063938b9ceb1461006b575b600080fd5b6100556004803603810190610050919061012d565b610075565b6040516100629190610169565b60405180910390f35b6100736100b1565b005b6000806000600190505b8381116100a75780826100929190610184565b9150808061009f906101e4565b91505061007f565b5080915050919050565b60005b600a8110156100f55760038114156100cb576100e2565b60058114156100d9576100f5565b80806001019150505b80806100ed906101e4565b9150506100b4565b5060005b600a81101561011557808061010d906101e4565b9150506100f9565b50565b60008135905061012781610261565b92915050565b6000602082840312156101435761014261025c565b5b600061015184828501610118565b91505092915050565b610163816101da565b82525050565b600060208201905061017e600083018461015a565b92915050565b600061018f826101da565b915061019a836101da565b9250827fffffffffffffffffffffffffffffffffffffffffffffffffffffffffffffffff038211156101cf576101ce61022d565b5b828201905092915050565b6000819050919050565b60006101ef826101da565b91507fffffffffffffffffffffffffffffffffffffffffffffffffffffffffffffffff8214156102225761022161022d565b5b600182019050919050565b7f4e487b7100000000000000000000000000000000000000000000000000000000600052601160045260246000fd5b600080fd5b61026a816101da565b811461027557600080fd5b5056fea2646970667358221220d10d41b1bf1640b53dfcce99897972bbcc7243ea7f259789aff726476548d06f64736f6c63430008070033",
					"opcodes": "PUSH1 0x80 PUSH1 0x40 MSTORE CALLVALUE DUP1 ISZERO PUSH2 0x10 JUMPI PUSH1 0x0 DUP1 REVERT JUMPDEST POP PUSH2 0x2AE DUP1 PUSH2 0x20 PUSH1 0x0 CODECOPY PUSH1 0x0 RETURN INVALID PUSH1 0x80 PUSH1 0x40 MSTORE CALLVALUE DUP1 ISZERO PUSH2 0x10 JUMPI PUSH1 0x0 DUP1 REVERT JUMPDEST POP PUSH1 0x4 CALLDATASIZE LT PUSH2 0x36 JUMPI PUSH1 0x0 CALLDATALOAD PUSH1 0xE0 SHR DUP1 PUSH4 0x188B85B4 EQ PUSH2 0x3B JUMPI DUP1 PUSH4 0x938B9CEB EQ PUSH2 0x6B JUMPI JUMPDEST PUSH1 0x0 DUP1 REVERT JUMPDEST PUSH2 0x55 PUSH1 0x4 DUP1 CALLDATASIZE SUB DUP2 ADD SWAP1 PUSH2 0x50 SWAP2 SWAP1 PUSH2 0x12D JUMP JUMPDEST PUSH2 0x75 JUMP JUMPDEST PUSH1 0x40 MLOAD PUSH2 0x62 SWAP2 SWAP1 PUSH2 0x169 JUMP JUMPDEST PUSH1 0x40 MLOAD DUP1 SWAP2 SUB SWAP1 RETURN JUMPDEST PUSH2 0x73 PUSH2 0xB1 JUMP JUMPDEST STOP JUMPDEST PUSH1 0x0 DUP1 PUSH1 0x0 PUSH1 0x1 SWAP1 POP JUMPDEST DUP4 DUP2 GT PUSH2 0xA7 JUMPI DUP1 DUP3 PUSH2 0x92 SWAP2 SWAP1 PUSH2 0x184 JUMP JUMPDEST SWAP2 POP DUP1 DUP1 PUSH2 0x9F SWAP1 PUSH2 0x1E4 JUMP JUMPDEST SWAP2 POP POP PUSH2 0x7F JUMP JUMPDEST POP DUP1 SWAP2 POP POP SWAP2 SWAP1 POP JUMP JUMPDEST PUSH1 0x0 JUMPDEST PUSH1 0xA DUP2 LT ISZERO PUSH2 0xF5 JUMPI PUSH1 0x3 DUP2 EQ ISZERO PUSH2 0xCB JUMPI PUSH2 0xE2 JUMP JUMPDEST PUSH1 0x5 DUP2 EQ ISZERO PUSH2 0xD9 JUMPI PUSH2 0xF5 JUMP JUMPDEST DUP1 DUP1 PUSH1 0x1 ADD SWAP2 POP POP JUMPDEST DUP1 DUP1 PUSH2 0xED SWAP1 PUSH2 0x1E4 JUMP JUMPDEST SWAP2 POP POP PUSH2 0xB4 JUMP JUMPDEST POP PUSH1 0x0 JUMPDEST PUSH1 0xA DUP2 LT ISZERO PUSH2 0x115 JUMPI DUP1 DUP1 PUSH2 0x10D SWAP1 PUSH2 0x1E4 JUMP JUMPDEST SWAP2 POP POP PUSH2 0xF9 JUMP JUMPDEST POP JUMP JUMPDEST PUSH1 0x0 DUP2 CALLDATALOAD SWAP1 POP PUSH2 0x127 DUP2 PUSH2 0x261 JUMP JUMPDEST SWAP3 SWAP2 POP POP JUMP JUMPDEST PUSH1 0x0 PUSH1 0x20 DUP3 DUP5 SUB SLT ISZERO PUSH2 0x143 JUMPI PUSH2 0x142 PUSH2 0x25C JUMP JUMPDEST JUMPDEST PUSH1 0x0 PUSH2 0x151 DUP5 DUP3 DUP6 ADD PUSH2 0x118 JUMP JUMPDEST SWAP2 POP POP SWAP3 SWAP2 POP POP JUMP JUMPDEST PUSH2 0x163 DUP2 PUSH2 0x1DA JUMP JUMPDEST DUP3 MSTORE POP POP JUMP JUMPDEST PUSH1 0x0 PUSH1 0x20 DUP3 ADD SWAP1 POP PUSH2 0x17E PUSH1 0x0 DUP4 ADD DUP5 PUSH2 0x15A JUMP JUMPDEST SWAP3 SWAP2 POP POP JUMP JUMPDEST PUSH1 0x0 PUSH2 0x18F DUP3 PUSH2 0x1DA JUMP JUMPDEST SWAP2 POP PUSH2 0x19A DUP4 PUSH2 0x1DA JUMP JUMPDEST SWAP3 POP DUP3 PUSH32 0xFFFFFFFFFFFFFFFFFFFFFFFFFFFFFFFFFFFFFFFFFFFFFFFFFFFFFFFFFFFFFFFF SUB DUP3 GT ISZERO PUSH2 0x1CF JUMPI PUSH2 0x1CE PUSH2 0x22D JUMP JUMPDEST JUMPDEST DUP3 DUP3 ADD SWAP1 POP SWAP3 SWAP2 POP POP JUMP JUMPDEST PUSH1 0x0 DUP2 SWAP1 POP SWAP2 SWAP1 POP JUMP JUMPDEST PUSH1 0x0 PUSH2 0x1EF DUP3 PUSH2 0x1DA JUMP JUMPDEST SWAP2 POP PUSH32 0xFFFFFFFFFFFFFFFFFFFFFFFFFFFFFFFFFFFFFFFFFFFFFFFFFFFFFFFFFFFFFFFF DUP3 EQ ISZERO PUSH2 0x222 JUMPI PUSH2 0x221 PUSH2 0x22D JUMP JUMPDEST JUMPDEST PUSH1 0x1 DUP3 ADD SWAP1 POP SWAP2 SWAP1 POP JUMP JUMPDEST PUSH32 0x4E487B7100000000000000000000000000000000000000000000000000000000 PUSH1 0x0 MSTORE PUSH1 0x11 PUSH1 0x4 MSTORE PUSH1 0x24 PUSH1 0x0 REVERT JUMPDEST PUSH1 0x0 DUP1 REVERT JUMPDEST PUSH2 0x26A DUP2 PUSH2 0x1DA JUMP JUMPDEST DUP2 EQ PUSH2 0x275 JUMPI PUSH1 0x0 DUP1 REVERT JUMPDEST POP JUMP INVALID LOG2 PUSH5 0x6970667358 0x22 SLT KECCAK256 0xD1 0xD COINBASE 0xB1 0xBF AND BLOCKHASH 0xB5 RETURNDATASIZE 0xFC 0xCE SWAP10 DUP10 PUSH26 0x72BBCC7243EA7F259789AFF726476548D06F64736F6C63430008 SMOD STOP CALLER "
				},
				"gasEstimates": {
					"creation": {
						"codeDepositCost": "137200",
						"executionCost": "183",
						"totalCost": "137383"
					},
					"external": {
						"loops()": "infinite",
						"sum(uint256)": "infinite"
					}
				},
				"methodIdentifiers": {
					"loops()": "938b9ceb",
					"sum(uint256)": "188b85b4"
				}
			},
			"storageLayout": {
				"storage": [],
				"types": null
			},
			"userdoc": {
				"kind": "user",
				"methods": {},
				"version": 1
			}
		}
	}
}