{
	"contracts/Week5/FunctionModifier.sol": {
		"FUnctionModifier": {
			"abi": [
				{
					"inputs": [],
					"name": "count",
					"outputs": [
						{
							"internalType": "uint256",
							"name": "",
							"type": "uint256"
						}
					],
					"stateMutability": "view",
					"type": "function"
				},
				{
					"inputs": [],
					"name": "dec",
					"outputs": [],
					"stateMutability": "nonpayable",
					"type": "function"
				},
				{
					"inputs": [],
					"name": "foo",
					"outputs": [],
					"stateMutability": "nonpayable",
					"type": "function"
				},
				{
					"inputs": [],
					"name": "inc",
					"outputs": [],
					"stateMutability": "nonpayable",
					"type": "function"
				},
				{
					"inputs": [
						{
							"internalType": "uint256",
							"name": "_x",
							"type": "uint256"
						}
					],
					"name": "incBy",
					"outputs": [],
					"stateMutability": "nonpayable",
					"type": "function"
				},
				{
					"inputs": [],
					"name": "paused",
					"outputs": [
						{
							"internalType": "bool",
							"name": "",
							"type": "bool"
						}
					],
					"stateMutability": "view",
					"type": "function"
				},
				{
					"inputs": [
						{
							"internalType": "bool",
							"name": "_paused",
							"type": "bool"
						}
					],
					"name": "setPauce",
					"outputs": [],
					"stateMutability": "nonpayable",
					"type": "function"
				}
			],
			"devdoc": {
				"kind": "dev",
				"methods": {},
				"version": 1
			},
			"evm": {
				"assembly": "    /* \"contracts/Week5/FunctionModifier.sol\":58:940  contract FUnctionModifier{... */\n  mstore(0x40, 0x80)\n  callvalue\n  dup1\n  iszero\n  tag_1\n  jumpi\n  0x00\n  dup1\n  revert\ntag_1:\n  pop\n  dataSize(sub_0)\n  dup1\n  dataOffset(sub_0)\n  0x00\n  codecopy\n  0x00\n  return\nstop\n\nsub_0: assembly {\n        /* \"contracts/Week5/FunctionModifier.sol\":58:940  contract FUnctionModifier{... */\n      mstore(0x40, 0x80)\n      callvalue\n      dup1\n      iszero\n      tag_1\n      jumpi\n      0x00\n      dup1\n      revert\n    tag_1:\n      pop\n      jumpi(tag_2, lt(calldatasize, 0x04))\n      shr(0xe0, calldataload(0x00))\n      dup1\n      0x5c975abb\n      gt\n      tag_10\n      jumpi\n      dup1\n      0x5c975abb\n      eq\n      tag_6\n      jumpi\n      dup1\n      0x70119d06\n      eq\n      tag_7\n      jumpi\n      dup1\n      0xb3bcfa82\n      eq\n      tag_8\n      jumpi\n      dup1\n      0xc2985578\n      eq\n      tag_9\n      jumpi\n      jump(tag_2)\n    tag_10:\n      dup1\n      0x06661abd\n      eq\n      tag_3\n      jumpi\n      dup1\n      0x18ac0598\n      eq\n      tag_4\n      jumpi\n      dup1\n      0x371303c0\n      eq\n      tag_5\n      jumpi\n    tag_2:\n      0x00\n      dup1\n      revert\n        /* \"contracts/Week5/FunctionModifier.sol\":114:131  uint public count */\n    tag_3:\n      tag_11\n      tag_12\n      jump\t// in\n    tag_11:\n      mload(0x40)\n      tag_13\n      swap2\n      swap1\n      tag_14\n      jump\t// in\n    tag_13:\n      mload(0x40)\n      dup1\n      swap2\n      sub\n      swap1\n      return\n        /* \"contracts/Week5/FunctionModifier.sol\":143:219  function setPauce( bool _paused) external {... */\n    tag_4:\n      tag_15\n      0x04\n      dup1\n      calldatasize\n      sub\n      dup2\n      add\n      swap1\n      tag_16\n      swap2\n      swap1\n      tag_17\n      jump\t// in\n    tag_16:\n      tag_18\n      jump\t// in\n    tag_15:\n      stop\n        /* \"contracts/Week5/FunctionModifier.sol\":356:422  function inc() external whenNotPaused {... */\n    tag_5:\n      tag_19\n      tag_20\n      jump\t// in\n    tag_19:\n      stop\n        /* \"contracts/Week5/FunctionModifier.sol\":89:107  bool public paused */\n    tag_6:\n      tag_21\n      tag_22\n      jump\t// in\n    tag_21:\n      mload(0x40)\n      tag_23\n      swap2\n      swap1\n      tag_24\n      jump\t// in\n    tag_23:\n      mload(0x40)\n      dup1\n      swap2\n      sub\n      swap1\n      return\n        /* \"contracts/Week5/FunctionModifier.sol\":620:703  function incBy(uint _x) external whenNotPaused cap(_x){... */\n    tag_7:\n      tag_25\n      0x04\n      dup1\n      calldatasize\n      sub\n      dup2\n      add\n      swap1\n      tag_26\n      swap2\n      swap1\n      tag_27\n      jump\t// in\n    tag_26:\n      tag_28\n      jump\t// in\n    tag_25:\n      stop\n        /* \"contracts/Week5/FunctionModifier.sol\":433:498  function dec() external whenNotPaused{... */\n    tag_8:\n      tag_29\n      tag_30\n      jump\t// in\n    tag_29:\n      stop\n        /* \"contracts/Week5/FunctionModifier.sol\":876:937  function foo() external sandwich {... */\n    tag_9:\n      tag_31\n      tag_32\n      jump\t// in\n    tag_31:\n      stop\n        /* \"contracts/Week5/FunctionModifier.sol\":114:131  uint public count */\n    tag_12:\n      sload(0x01)\n      dup2\n      jump\t// out\n        /* \"contracts/Week5/FunctionModifier.sol\":143:219  function setPauce( bool _paused) external {... */\n    tag_18:\n        /* \"contracts/Week5/FunctionModifier.sol\":204:211  _paused */\n      dup1\n        /* \"contracts/Week5/FunctionModifier.sol\":195:201  paused */\n      0x00\n      dup1\n        /* \"contracts/Week5/FunctionModifier.sol\":195:211  paused = _paused */\n      0x0100\n      exp\n      dup2\n      sload\n      dup2\n      0xff\n      mul\n      not\n      and\n      swap1\n      dup4\n      iszero\n      iszero\n      mul\n      or\n      swap1\n      sstore\n      pop\n        /* \"contracts/Week5/FunctionModifier.sol\":143:219  function setPauce( bool _paused) external {... */\n      pop\n      jump\t// out\n        /* \"contracts/Week5/FunctionModifier.sol\":356:422  function inc() external whenNotPaused {... */\n    tag_20:\n        /* \"contracts/Week5/FunctionModifier.sol\":313:319  paused */\n      0x00\n      dup1\n      sload\n      swap1\n      0x0100\n      exp\n      swap1\n      div\n      0xff\n      and\n        /* \"contracts/Week5/FunctionModifier.sol\":312:319  !paused */\n      iszero\n        /* \"contracts/Week5/FunctionModifier.sol\":304:330  require(!paused, \"paused\") */\n      tag_35\n      jumpi\n      mload(0x40)\n      0x08c379a000000000000000000000000000000000000000000000000000000000\n      dup2\n      mstore\n      0x04\n      add\n      tag_36\n      swap1\n      tag_37\n      jump\t// in\n    tag_36:\n      mload(0x40)\n      dup1\n      swap2\n      sub\n      swap1\n      revert\n    tag_35:\n        /* \"contracts/Week5/FunctionModifier.sol\":413:414  1 */\n      0x01\n        /* \"contracts/Week5/FunctionModifier.sol\":404:409  count */\n      dup1\n      0x00\n        /* \"contracts/Week5/FunctionModifier.sol\":404:414  count += 1 */\n      dup3\n      dup3\n      sload\n      tag_39\n      swap2\n      swap1\n      tag_40\n      jump\t// in\n    tag_39:\n      swap3\n      pop\n      pop\n      dup2\n      swap1\n      sstore\n      pop\n        /* \"contracts/Week5/FunctionModifier.sol\":356:422  function inc() external whenNotPaused {... */\n      jump\t// out\n        /* \"contracts/Week5/FunctionModifier.sol\":89:107  bool public paused */\n    tag_22:\n      0x00\n      dup1\n      sload\n      swap1\n      0x0100\n      exp\n      swap1\n      div\n      0xff\n      and\n      dup2\n      jump\t// out\n        /* \"contracts/Week5/FunctionModifier.sol\":620:703  function incBy(uint _x) external whenNotPaused cap(_x){... */\n    tag_28:\n        /* \"contracts/Week5/FunctionModifier.sol\":313:319  paused */\n      0x00\n      dup1\n      sload\n      swap1\n      0x0100\n      exp\n      swap1\n      div\n      0xff\n      and\n        /* \"contracts/Week5/FunctionModifier.sol\":312:319  !paused */\n      iszero\n        /* \"contracts/Week5/FunctionModifier.sol\":304:330  require(!paused, \"paused\") */\n      tag_42\n      jumpi\n      mload(0x40)\n      0x08c379a000000000000000000000000000000000000000000000000000000000\n      dup2\n      mstore\n      0x04\n      add\n      tag_43\n      swap1\n      tag_37\n      jump\t// in\n    tag_43:\n      mload(0x40)\n      dup1\n      swap2\n      sub\n      swap1\n      revert\n    tag_42:\n        /* \"contracts/Week5/FunctionModifier.sol\":671:673  _x */\n      dup1\n        /* \"contracts/Week5/FunctionModifier.sol\":548:551  100 */\n      0x64\n        /* \"contracts/Week5/FunctionModifier.sol\":543:545  _x */\n      dup2\n        /* \"contracts/Week5/FunctionModifier.sol\":543:551  _x < 100 */\n      lt\n        /* \"contracts/Week5/FunctionModifier.sol\":535:562  require(_x < 100, \"x>=100\") */\n      tag_45\n      jumpi\n      mload(0x40)\n      0x08c379a000000000000000000000000000000000000000000000000000000000\n      dup2\n      mstore\n      0x04\n      add\n      tag_46\n      swap1\n      tag_47\n      jump\t// in\n    tag_46:\n      mload(0x40)\n      dup1\n      swap2\n      sub\n      swap1\n      revert\n    tag_45:\n        /* \"contracts/Week5/FunctionModifier.sol\":693:695  _x */\n      dup2\n        /* \"contracts/Week5/FunctionModifier.sol\":684:689  count */\n      0x01\n      0x00\n        /* \"contracts/Week5/FunctionModifier.sol\":684:695  count += _x */\n      dup3\n      dup3\n      sload\n      tag_49\n      swap2\n      swap1\n      tag_40\n      jump\t// in\n    tag_49:\n      swap3\n      pop\n      pop\n      dup2\n      swap1\n      sstore\n      pop\n        /* \"contracts/Week5/FunctionModifier.sol\":341:342  _ */\n      pop\n        /* \"contracts/Week5/FunctionModifier.sol\":620:703  function incBy(uint _x) external whenNotPaused cap(_x){... */\n      pop\n      jump\t// out\n        /* \"contracts/Week5/FunctionModifier.sol\":433:498  function dec() external whenNotPaused{... */\n    tag_30:\n        /* \"contracts/Week5/FunctionModifier.sol\":313:319  paused */\n      0x00\n      dup1\n      sload\n      swap1\n      0x0100\n      exp\n      swap1\n      div\n      0xff\n      and\n        /* \"contracts/Week5/FunctionModifier.sol\":312:319  !paused */\n      iszero\n        /* \"contracts/Week5/FunctionModifier.sol\":304:330  require(!paused, \"paused\") */\n      tag_51\n      jumpi\n      mload(0x40)\n      0x08c379a000000000000000000000000000000000000000000000000000000000\n      dup2\n      mstore\n      0x04\n      add\n      tag_52\n      swap1\n      tag_37\n      jump\t// in\n    tag_52:\n      mload(0x40)\n      dup1\n      swap2\n      sub\n      swap1\n      revert\n    tag_51:\n        /* \"contracts/Week5/FunctionModifier.sol\":489:490  1 */\n      0x01\n        /* \"contracts/Week5/FunctionModifier.sol\":480:485  count */\n      dup1\n      0x00\n        /* \"contracts/Week5/FunctionModifier.sol\":480:490  count -= 1 */\n      dup3\n      dup3\n      sload\n      tag_54\n      swap2\n      swap1\n      tag_55\n      jump\t// in\n    tag_54:\n      swap3\n      pop\n      pop\n      dup2\n      swap1\n      sstore\n      pop\n        /* \"contracts/Week5/FunctionModifier.sol\":433:498  function dec() external whenNotPaused{... */\n      jump\t// out\n        /* \"contracts/Week5/FunctionModifier.sol\":876:937  function foo() external sandwich {... */\n    tag_32:\n        /* \"contracts/Week5/FunctionModifier.sol\":801:803  10 */\n      0x0a\n        /* \"contracts/Week5/FunctionModifier.sol\":792:797  count */\n      0x01\n      0x00\n        /* \"contracts/Week5/FunctionModifier.sol\":792:803  count += 10 */\n      dup3\n      dup3\n      sload\n      tag_57\n      swap2\n      swap1\n      tag_40\n      jump\t// in\n    tag_57:\n      swap3\n      pop\n      pop\n      dup2\n      swap1\n      sstore\n      pop\n        /* \"contracts/Week5/FunctionModifier.sol\":928:929  1 */\n      0x01\n        /* \"contracts/Week5/FunctionModifier.sol\":919:924  count */\n      dup1\n      0x00\n        /* \"contracts/Week5/FunctionModifier.sol\":919:929  count += 1 */\n      dup3\n      dup3\n      sload\n      tag_59\n      swap2\n      swap1\n      tag_40\n      jump\t// in\n    tag_59:\n      swap3\n      pop\n      pop\n      dup2\n      swap1\n      sstore\n      pop\n        /* \"contracts/Week5/FunctionModifier.sol\":861:862  2 */\n      0x02\n        /* \"contracts/Week5/FunctionModifier.sol\":852:857  count */\n      0x01\n      0x00\n        /* \"contracts/Week5/FunctionModifier.sol\":852:862  count += 2 */\n      dup3\n      dup3\n      sload\n      tag_60\n      swap2\n      swap1\n      tag_40\n      jump\t// in\n    tag_60:\n      swap3\n      pop\n      pop\n      dup2\n      swap1\n      sstore\n      pop\n        /* \"contracts/Week5/FunctionModifier.sol\":876:937  function foo() external sandwich {... */\n      jump\t// out\n        /* \"#utility.yul\":7:140   */\n    tag_62:\n        /* \"#utility.yul\":50:55   */\n      0x00\n        /* \"#utility.yul\":88:94   */\n      dup2\n        /* \"#utility.yul\":75:95   */\n      calldataload\n        /* \"#utility.yul\":66:95   */\n      swap1\n      pop\n        /* \"#utility.yul\":104:134   */\n      tag_64\n        /* \"#utility.yul\":128:133   */\n      dup2\n        /* \"#utility.yul\":104:134   */\n      tag_65\n      jump\t// in\n    tag_64:\n        /* \"#utility.yul\":7:140   */\n      swap3\n      swap2\n      pop\n      pop\n      jump\t// out\n        /* \"#utility.yul\":146:285   */\n    tag_66:\n        /* \"#utility.yul\":192:197   */\n      0x00\n        /* \"#utility.yul\":230:236   */\n      dup2\n        /* \"#utility.yul\":217:237   */\n      calldataload\n        /* \"#utility.yul\":208:237   */\n      swap1\n      pop\n        /* \"#utility.yul\":246:279   */\n      tag_68\n        /* \"#utility.yul\":273:278   */\n      dup2\n        /* \"#utility.yul\":246:279   */\n      tag_69\n      jump\t// in\n    tag_68:\n        /* \"#utility.yul\":146:285   */\n      swap3\n      swap2\n      pop\n      pop\n      jump\t// out\n        /* \"#utility.yul\":291:614   */\n    tag_17:\n        /* \"#utility.yul\":347:353   */\n      0x00\n        /* \"#utility.yul\":396:398   */\n      0x20\n        /* \"#utility.yul\":384:393   */\n      dup3\n        /* \"#utility.yul\":375:382   */\n      dup5\n        /* \"#utility.yul\":371:394   */\n      sub\n        /* \"#utility.yul\":367:399   */\n      slt\n        /* \"#utility.yul\":364:483   */\n      iszero\n      tag_71\n      jumpi\n        /* \"#utility.yul\":402:481   */\n      tag_72\n      tag_73\n      jump\t// in\n    tag_72:\n        /* \"#utility.yul\":364:483   */\n    tag_71:\n        /* \"#utility.yul\":522:523   */\n      0x00\n        /* \"#utility.yul\":547:597   */\n      tag_74\n        /* \"#utility.yul\":589:596   */\n      dup5\n        /* \"#utility.yul\":580:586   */\n      dup3\n        /* \"#utility.yul\":569:578   */\n      dup6\n        /* \"#utility.yul\":565:587   */\n      add\n        /* \"#utility.yul\":547:597   */\n      tag_62\n      jump\t// in\n    tag_74:\n        /* \"#utility.yul\":537:597   */\n      swap2\n      pop\n        /* \"#utility.yul\":493:607   */\n      pop\n        /* \"#utility.yul\":291:614   */\n      swap3\n      swap2\n      pop\n      pop\n      jump\t// out\n        /* \"#utility.yul\":620:949   */\n    tag_27:\n        /* \"#utility.yul\":679:685   */\n      0x00\n        /* \"#utility.yul\":728:730   */\n      0x20\n        /* \"#utility.yul\":716:725   */\n      dup3\n        /* \"#utility.yul\":707:714   */\n      dup5\n        /* \"#utility.yul\":703:726   */\n      sub\n        /* \"#utility.yul\":699:731   */\n      slt\n        /* \"#utility.yul\":696:815   */\n      iszero\n      tag_76\n      jumpi\n        /* \"#utility.yul\":734:813   */\n      tag_77\n      tag_73\n      jump\t// in\n    tag_77:\n        /* \"#utility.yul\":696:815   */\n    tag_76:\n        /* \"#utility.yul\":854:855   */\n      0x00\n        /* \"#utility.yul\":879:932   */\n      tag_78\n        /* \"#utility.yul\":924:931   */\n      dup5\n        /* \"#utility.yul\":915:921   */\n      dup3\n        /* \"#utility.yul\":904:913   */\n      dup6\n        /* \"#utility.yul\":900:922   */\n      add\n        /* \"#utility.yul\":879:932   */\n      tag_66\n      jump\t// in\n    tag_78:\n        /* \"#utility.yul\":869:932   */\n      swap2\n      pop\n        /* \"#utility.yul\":825:942   */\n      pop\n        /* \"#utility.yul\":620:949   */\n      swap3\n      swap2\n      pop\n      pop\n      jump\t// out\n        /* \"#utility.yul\":955:1064   */\n    tag_79:\n        /* \"#utility.yul\":1036:1057   */\n      tag_81\n        /* \"#utility.yul\":1051:1056   */\n      dup2\n        /* \"#utility.yul\":1036:1057   */\n      tag_82\n      jump\t// in\n    tag_81:\n        /* \"#utility.yul\":1031:1034   */\n      dup3\n        /* \"#utility.yul\":1024:1058   */\n      mstore\n        /* \"#utility.yul\":955:1064   */\n      pop\n      pop\n      jump\t// out\n        /* \"#utility.yul\":1070:1435   */\n    tag_83:\n        /* \"#utility.yul\":1212:1215   */\n      0x00\n        /* \"#utility.yul\":1233:1299   */\n      tag_85\n        /* \"#utility.yul\":1297:1298   */\n      0x06\n        /* \"#utility.yul\":1292:1295   */\n      dup4\n        /* \"#utility.yul\":1233:1299   */\n      tag_86\n      jump\t// in\n    tag_85:\n        /* \"#utility.yul\":1226:1299   */\n      swap2\n      pop\n        /* \"#utility.yul\":1308:1401   */\n      tag_87\n        /* \"#utility.yul\":1397:1400   */\n      dup3\n        /* \"#utility.yul\":1308:1401   */\n      tag_88\n      jump\t// in\n    tag_87:\n        /* \"#utility.yul\":1426:1428   */\n      0x20\n        /* \"#utility.yul\":1421:1424   */\n      dup3\n        /* \"#utility.yul\":1417:1429   */\n      add\n        /* \"#utility.yul\":1410:1429   */\n      swap1\n      pop\n        /* \"#utility.yul\":1070:1435   */\n      swap2\n      swap1\n      pop\n      jump\t// out\n        /* \"#utility.yul\":1441:1806   */\n    tag_89:\n        /* \"#utility.yul\":1583:1586   */\n      0x00\n        /* \"#utility.yul\":1604:1670   */\n      tag_91\n        /* \"#utility.yul\":1668:1669   */\n      0x06\n        /* \"#utility.yul\":1663:1666   */\n      dup4\n        /* \"#utility.yul\":1604:1670   */\n      tag_86\n      jump\t// in\n    tag_91:\n        /* \"#utility.yul\":1597:1670   */\n      swap2\n      pop\n        /* \"#utility.yul\":1679:1772   */\n      tag_92\n        /* \"#utility.yul\":1768:1771   */\n      dup3\n        /* \"#utility.yul\":1679:1772   */\n      tag_93\n      jump\t// in\n    tag_92:\n        /* \"#utility.yul\":1797:1799   */\n      0x20\n        /* \"#utility.yul\":1792:1795   */\n      dup3\n        /* \"#utility.yul\":1788:1800   */\n      add\n        /* \"#utility.yul\":1781:1800   */\n      swap1\n      pop\n        /* \"#utility.yul\":1441:1806   */\n      swap2\n      swap1\n      pop\n      jump\t// out\n        /* \"#utility.yul\":1812:1930   */\n    tag_94:\n        /* \"#utility.yul\":1899:1923   */\n      tag_96\n        /* \"#utility.yul\":1917:1922   */\n      dup2\n        /* \"#utility.yul\":1899:1923   */\n      tag_97\n      jump\t// in\n    tag_96:\n        /* \"#utility.yul\":1894:1897   */\n      dup3\n        /* \"#utility.yul\":1887:1924   */\n      mstore\n        /* \"#utility.yul\":1812:1930   */\n      pop\n      pop\n      jump\t// out\n        /* \"#utility.yul\":1936:2146   */\n    tag_24:\n        /* \"#utility.yul\":2023:2027   */\n      0x00\n        /* \"#utility.yul\":2061:2063   */\n      0x20\n        /* \"#utility.yul\":2050:2059   */\n      dup3\n        /* \"#utility.yul\":2046:2064   */\n      add\n        /* \"#utility.yul\":2038:2064   */\n      swap1\n      pop\n        /* \"#utility.yul\":2074:2139   */\n      tag_99\n        /* \"#utility.yul\":2136:2137   */\n      0x00\n        /* \"#utility.yul\":2125:2134   */\n      dup4\n        /* \"#utility.yul\":2121:2138   */\n      add\n        /* \"#utility.yul\":2112:2118   */\n      dup5\n        /* \"#utility.yul\":2074:2139   */\n      tag_79\n      jump\t// in\n    tag_99:\n        /* \"#utility.yul\":1936:2146   */\n      swap3\n      swap2\n      pop\n      pop\n      jump\t// out\n        /* \"#utility.yul\":2152:2571   */\n    tag_47:\n        /* \"#utility.yul\":2318:2322   */\n      0x00\n        /* \"#utility.yul\":2356:2358   */\n      0x20\n        /* \"#utility.yul\":2345:2354   */\n      dup3\n        /* \"#utility.yul\":2341:2359   */\n      add\n        /* \"#utility.yul\":2333:2359   */\n      swap1\n      pop\n        /* \"#utility.yul\":2405:2414   */\n      dup2\n        /* \"#utility.yul\":2399:2403   */\n      dup2\n        /* \"#utility.yul\":2395:2415   */\n      sub\n        /* \"#utility.yul\":2391:2392   */\n      0x00\n        /* \"#utility.yul\":2380:2389   */\n      dup4\n        /* \"#utility.yul\":2376:2393   */\n      add\n        /* \"#utility.yul\":2369:2416   */\n      mstore\n        /* \"#utility.yul\":2433:2564   */\n      tag_101\n        /* \"#utility.yul\":2559:2563   */\n      dup2\n        /* \"#utility.yul\":2433:2564   */\n      tag_83\n      jump\t// in\n    tag_101:\n        /* \"#utility.yul\":2425:2564   */\n      swap1\n      pop\n        /* \"#utility.yul\":2152:2571   */\n      swap2\n      swap1\n      pop\n      jump\t// out\n        /* \"#utility.yul\":2577:2996   */\n    tag_37:\n        /* \"#utility.yul\":2743:2747   */\n      0x00\n        /* \"#utility.yul\":2781:2783   */\n      0x20\n        /* \"#utility.yul\":2770:2779   */\n      dup3\n        /* \"#utility.yul\":2766:2784   */\n      add\n        /* \"#utility.yul\":2758:2784   */\n      swap1\n      pop\n        /* \"#utility.yul\":2830:2839   */\n      dup2\n        /* \"#utility.yul\":2824:2828   */\n      dup2\n        /* \"#utility.yul\":2820:2840   */\n      sub\n        /* \"#utility.yul\":2816:2817   */\n      0x00\n        /* \"#utility.yul\":2805:2814   */\n      dup4\n        /* \"#utility.yul\":2801:2818   */\n      add\n        /* \"#utility.yul\":2794:2841   */\n      mstore\n        /* \"#utility.yul\":2858:2989   */\n      tag_103\n        /* \"#utility.yul\":2984:2988   */\n      dup2\n        /* \"#utility.yul\":2858:2989   */\n      tag_89\n      jump\t// in\n    tag_103:\n        /* \"#utility.yul\":2850:2989   */\n      swap1\n      pop\n        /* \"#utility.yul\":2577:2996   */\n      swap2\n      swap1\n      pop\n      jump\t// out\n        /* \"#utility.yul\":3002:3224   */\n    tag_14:\n        /* \"#utility.yul\":3095:3099   */\n      0x00\n        /* \"#utility.yul\":3133:3135   */\n      0x20\n        /* \"#utility.yul\":3122:3131   */\n      dup3\n        /* \"#utility.yul\":3118:3136   */\n      add\n        /* \"#utility.yul\":3110:3136   */\n      swap1\n      pop\n        /* \"#utility.yul\":3146:3217   */\n      tag_105\n        /* \"#utility.yul\":3214:3215   */\n      0x00\n        /* \"#utility.yul\":3203:3212   */\n      dup4\n        /* \"#utility.yul\":3199:3216   */\n      add\n        /* \"#utility.yul\":3190:3196   */\n      dup5\n        /* \"#utility.yul\":3146:3217   */\n      tag_94\n      jump\t// in\n    tag_105:\n        /* \"#utility.yul\":3002:3224   */\n      swap3\n      swap2\n      pop\n      pop\n      jump\t// out\n        /* \"#utility.yul\":3311:3480   */\n    tag_86:\n        /* \"#utility.yul\":3395:3406   */\n      0x00\n        /* \"#utility.yul\":3429:3435   */\n      dup3\n        /* \"#utility.yul\":3424:3427   */\n      dup3\n        /* \"#utility.yul\":3417:3436   */\n      mstore\n        /* \"#utility.yul\":3469:3473   */\n      0x20\n        /* \"#utility.yul\":3464:3467   */\n      dup3\n        /* \"#utility.yul\":3460:3474   */\n      add\n        /* \"#utility.yul\":3445:3474   */\n      swap1\n      pop\n        /* \"#utility.yul\":3311:3480   */\n      swap3\n      swap2\n      pop\n      pop\n      jump\t// out\n        /* \"#utility.yul\":3486:3791   */\n    tag_40:\n        /* \"#utility.yul\":3526:3529   */\n      0x00\n        /* \"#utility.yul\":3545:3565   */\n      tag_110\n        /* \"#utility.yul\":3563:3564   */\n      dup3\n        /* \"#utility.yul\":3545:3565   */\n      tag_97\n      jump\t// in\n    tag_110:\n        /* \"#utility.yul\":3540:3565   */\n      swap2\n      pop\n        /* \"#utility.yul\":3579:3599   */\n      tag_111\n        /* \"#utility.yul\":3597:3598   */\n      dup4\n        /* \"#utility.yul\":3579:3599   */\n      tag_97\n      jump\t// in\n    tag_111:\n        /* \"#utility.yul\":3574:3599   */\n      swap3\n      pop\n        /* \"#utility.yul\":3733:3734   */\n      dup3\n        /* \"#utility.yul\":3665:3731   */\n      0xffffffffffffffffffffffffffffffffffffffffffffffffffffffffffffffff\n        /* \"#utility.yul\":3661:3735   */\n      sub\n        /* \"#utility.yul\":3658:3659   */\n      dup3\n        /* \"#utility.yul\":3655:3736   */\n      gt\n        /* \"#utility.yul\":3652:3759   */\n      iszero\n      tag_112\n      jumpi\n        /* \"#utility.yul\":3739:3757   */\n      tag_113\n      tag_114\n      jump\t// in\n    tag_113:\n        /* \"#utility.yul\":3652:3759   */\n    tag_112:\n        /* \"#utility.yul\":3783:3784   */\n      dup3\n        /* \"#utility.yul\":3780:3781   */\n      dup3\n        /* \"#utility.yul\":3776:3785   */\n      add\n        /* \"#utility.yul\":3769:3785   */\n      swap1\n      pop\n        /* \"#utility.yul\":3486:3791   */\n      swap3\n      swap2\n      pop\n      pop\n      jump\t// out\n        /* \"#utility.yul\":3797:3988   */\n    tag_55:\n        /* \"#utility.yul\":3837:3841   */\n      0x00\n        /* \"#utility.yul\":3857:3877   */\n      tag_116\n        /* \"#utility.yul\":3875:3876   */\n      dup3\n        /* \"#utility.yul\":3857:3877   */\n      tag_97\n      jump\t// in\n    tag_116:\n        /* \"#utility.yul\":3852:3877   */\n      swap2\n      pop\n        /* \"#utility.yul\":3891:3911   */\n      tag_117\n        /* \"#utility.yul\":3909:3910   */\n      dup4\n        /* \"#utility.yul\":3891:3911   */\n      tag_97\n      jump\t// in\n    tag_117:\n        /* \"#utility.yul\":3886:3911   */\n      swap3\n      pop\n        /* \"#utility.yul\":3930:3931   */\n      dup3\n        /* \"#utility.yul\":3927:3928   */\n      dup3\n        /* \"#utility.yul\":3924:3932   */\n      lt\n        /* \"#utility.yul\":3921:3955   */\n      iszero\n      tag_118\n      jumpi\n        /* \"#utility.yul\":3935:3953   */\n      tag_119\n      tag_114\n      jump\t// in\n    tag_119:\n        /* \"#utility.yul\":3921:3955   */\n    tag_118:\n        /* \"#utility.yul\":3980:3981   */\n      dup3\n        /* \"#utility.yul\":3977:3978   */\n      dup3\n        /* \"#utility.yul\":3973:3982   */\n      sub\n        /* \"#utility.yul\":3965:3982   */\n      swap1\n      pop\n        /* \"#utility.yul\":3797:3988   */\n      swap3\n      swap2\n      pop\n      pop\n      jump\t// out\n        /* \"#utility.yul\":3994:4084   */\n    tag_82:\n        /* \"#utility.yul\":4028:4035   */\n      0x00\n        /* \"#utility.yul\":4071:4076   */\n      dup2\n        /* \"#utility.yul\":4064:4077   */\n      iszero\n        /* \"#utility.yul\":4057:4078   */\n      iszero\n        /* \"#utility.yul\":4046:4078   */\n      swap1\n      pop\n        /* \"#utility.yul\":3994:4084   */\n      swap2\n      swap1\n      pop\n      jump\t// out\n        /* \"#utility.yul\":4090:4167   */\n    tag_97:\n        /* \"#utility.yul\":4127:4134   */\n      0x00\n        /* \"#utility.yul\":4156:4161   */\n      dup2\n        /* \"#utility.yul\":4145:4161   */\n      swap1\n      pop\n        /* \"#utility.yul\":4090:4167   */\n      swap2\n      swap1\n      pop\n      jump\t// out\n        /* \"#utility.yul\":4173:4353   */\n    tag_114:\n        /* \"#utility.yul\":4221:4298   */\n      0x4e487b7100000000000000000000000000000000000000000000000000000000\n        /* \"#utility.yul\":4218:4219   */\n      0x00\n        /* \"#utility.yul\":4211:4299   */\n      mstore\n        /* \"#utility.yul\":4318:4322   */\n      0x11\n        /* \"#utility.yul\":4315:4316   */\n      0x04\n        /* \"#utility.yul\":4308:4323   */\n      mstore\n        /* \"#utility.yul\":4342:4346   */\n      0x24\n        /* \"#utility.yul\":4339:4340   */\n      0x00\n        /* \"#utility.yul\":4332:4347   */\n      revert\n        /* \"#utility.yul\":4482:4599   */\n    tag_73:\n        /* \"#utility.yul\":4591:4592   */\n      0x00\n        /* \"#utility.yul\":4588:4589   */\n      dup1\n        /* \"#utility.yul\":4581:4593   */\n      revert\n        /* \"#utility.yul\":4605:4761   */\n    tag_88:\n        /* \"#utility.yul\":4745:4753   */\n      0x783e3d3130300000000000000000000000000000000000000000000000000000\n        /* \"#utility.yul\":4741:4742   */\n      0x00\n        /* \"#utility.yul\":4733:4739   */\n      dup3\n        /* \"#utility.yul\":4729:4743   */\n      add\n        /* \"#utility.yul\":4722:4754   */\n      mstore\n        /* \"#utility.yul\":4605:4761   */\n      pop\n      jump\t// out\n        /* \"#utility.yul\":4767:4923   */\n    tag_93:\n        /* \"#utility.yul\":4907:4915   */\n      0x7061757365640000000000000000000000000000000000000000000000000000\n        /* \"#utility.yul\":4903:4904   */\n      0x00\n        /* \"#utility.yul\":4895:4901   */\n      dup3\n        /* \"#utility.yul\":4891:4905   */\n      add\n        /* \"#utility.yul\":4884:4916   */\n      mstore\n        /* \"#utility.yul\":4767:4923   */\n      pop\n      jump\t// out\n        /* \"#utility.yul\":4929:5045   */\n    tag_65:\n        /* \"#utility.yul\":4999:5020   */\n      tag_129\n        /* \"#utility.yul\":5014:5019   */\n      dup2\n        /* \"#utility.yul\":4999:5020   */\n      tag_82\n      jump\t// in\n    tag_129:\n        /* \"#utility.yul\":4992:4997   */\n      dup2\n        /* \"#utility.yul\":4989:5021   */\n      eq\n        /* \"#utility.yul\":4979:5039   */\n      tag_130\n      jumpi\n        /* \"#utility.yul\":5035:5036   */\n      0x00\n        /* \"#utility.yul\":5032:5033   */\n      dup1\n        /* \"#utility.yul\":5025:5037   */\n      revert\n        /* \"#utility.yul\":4979:5039   */\n    tag_130:\n        /* \"#utility.yul\":4929:5045   */\n      pop\n      jump\t// out\n        /* \"#utility.yul\":5051:5173   */\n    tag_69:\n        /* \"#utility.yul\":5124:5148   */\n      tag_132\n        /* \"#utility.yul\":5142:5147   */\n      dup2\n        /* \"#utility.yul\":5124:5148   */\n      tag_97\n      jump\t// in\n    tag_132:\n        /* \"#utility.yul\":5117:5122   */\n      dup2\n        /* \"#utility.yul\":5114:5149   */\n      eq\n        /* \"#utility.yul\":5104:5167   */\n      tag_133\n      jumpi\n        /* \"#utility.yul\":5163:5164   */\n      0x00\n        /* \"#utility.yul\":5160:5161   */\n      dup1\n        /* \"#utility.yul\":5153:5165   */\n      revert\n        /* \"#utility.yul\":5104:5167   */\n    tag_133:\n        /* \"#utility.yul\":5051:5173   */\n      pop\n      jump\t// out\n\n    auxdata: 0xa2646970667358221220602abf5b6995dd1a573700f64b9dc4b8e9646dd5c1335e93cf96a6ee704429b264736f6c63430008070033\n}\n",
				"bytecode": {
					"linkReferences": {},
					"object": "608060405234801561001057600080fd5b50610610806100206000396000f3fe608060405234801561001057600080fd5b506004361061007d5760003560e01c80635c975abb1161005b5780635c975abb146100c657806370119d06146100e4578063b3bcfa8214610100578063c29855781461010a5761007d565b806306661abd1461008257806318ac0598146100a0578063371303c0146100bc575b600080fd5b61008a610114565b604051610097919061045a565b60405180910390f35b6100ba60048036038101906100b59190610341565b61011a565b005b6100c4610136565b005b6100ce61019f565b6040516100db91906103ff565b60405180910390f35b6100fe60048036038101906100f9919061036e565b6101b0565b005b61010861025f565b005b6101126102c8565b005b60015481565b806000806101000a81548160ff02191690831515021790555050565b60008054906101000a900460ff1615610184576040517f08c379a000000000000000000000000000000000000000000000000000000000815260040161017b9061043a565b60405180910390fd5b60018060008282546101969190610486565b92505081905550565b60008054906101000a900460ff1681565b60008054906101000a900460ff16156101fe576040517f08c379a00000000000000000000000000000000000000000000000000000000081526004016101f59061043a565b60405180910390fd5b8060648110610242576040517f08c379a00000000000000000000000000000000000000000000000000000000081526004016102399061041a565b60405180910390fd5b81600160008282546102549190610486565b925050819055505050565b60008054906101000a900460ff16156102ad576040517f08c379a00000000000000000000000000000000000000000000000000000000081526004016102a49061043a565b60405180910390fd5b60018060008282546102bf91906104dc565b92505081905550565b600a600160008282546102db9190610486565b9250508190555060018060008282546102f49190610486565b9250508190555060026001600082825461030e9190610486565b92505081905550565b600081359050610326816105ac565b92915050565b60008135905061033b816105c3565b92915050565b60006020828403121561035757610356610555565b5b600061036584828501610317565b91505092915050565b60006020828403121561038457610383610555565b5b60006103928482850161032c565b91505092915050565b6103a481610510565b82525050565b60006103b7600683610475565b91506103c28261055a565b602082019050919050565b60006103da600683610475565b91506103e582610583565b602082019050919050565b6103f98161051c565b82525050565b6000602082019050610414600083018461039b565b92915050565b60006020820190508181036000830152610433816103aa565b9050919050565b60006020820190508181036000830152610453816103cd565b9050919050565b600060208201905061046f60008301846103f0565b92915050565b600082825260208201905092915050565b60006104918261051c565b915061049c8361051c565b9250827fffffffffffffffffffffffffffffffffffffffffffffffffffffffffffffffff038211156104d1576104d0610526565b5b828201905092915050565b60006104e78261051c565b91506104f28361051c565b92508282101561050557610504610526565b5b828203905092915050565b60008115159050919050565b6000819050919050565b7f4e487b7100000000000000000000000000000000000000000000000000000000600052601160045260246000fd5b600080fd5b7f783e3d3130300000000000000000000000000000000000000000000000000000600082015250565b7f7061757365640000000000000000000000000000000000000000000000000000600082015250565b6105b581610510565b81146105c057600080fd5b50565b6105cc8161051c565b81146105d757600080fd5b5056fea2646970667358221220602abf5b6995dd1a573700f64b9dc4b8e9646dd5c1335e93cf96a6ee704429b264736f6c63430008070033",
					"opcodes": "PUSH1 0x80 PUSH1 0x40 MSTORE CALLVALUE DUP1 ISZERO PUSH2 0x10 JUMPI PUSH1 0x0 DUP1 REVERT JUMPDEST POP PUSH2 0x610 DUP1 PUSH2 0x20 PUSH1 0x0 CODECOPY PUSH1 0x0 RETURN INVALID PUSH1 0x80 PUSH1 0x40 MSTORE CALLVALUE DUP1 ISZERO PUSH2 0x10 JUMPI PUSH1 0x0 DUP1 REVERT JUMPDEST POP PUSH1 0x4 CALLDATASIZE LT PUSH2 0x7D JUMPI PUSH1 0x0 CALLDATALOAD PUSH1 0xE0 SHR DUP1 PUSH4 0x5C975ABB GT PUSH2 0x5B JUMPI DUP1 PUSH4 0x5C975ABB EQ PUSH2 0xC6 JUMPI DUP1 PUSH4 0x70119D06 EQ PUSH2 0xE4 JUMPI DUP1 PUSH4 0xB3BCFA82 EQ PUSH2 0x100 JUMPI DUP1 PUSH4 0xC2985578 EQ PUSH2 0x10A JUMPI PUSH2 0x7D JUMP JUMPDEST DUP1 PUSH4 0x6661ABD EQ PUSH2 0x82 JUMPI DUP1 PUSH4 0x18AC0598 EQ PUSH2 0xA0 JUMPI DUP1 PUSH4 0x371303C0 EQ PUSH2 0xBC JUMPI JUMPDEST PUSH1 0x0 DUP1 REVERT JUMPDEST PUSH2 0x8A PUSH2 0x114 JUMP JUMPDEST PUSH1 0x40 MLOAD PUSH2 0x97 SWAP2 SWAP1 PUSH2 0x45A JUMP JUMPDEST PUSH1 0x40 MLOAD DUP1 SWAP2 SUB SWAP1 RETURN JUMPDEST PUSH2 0xBA PUSH1 0x4 DUP1 CALLDATASIZE SUB DUP2 ADD SWAP1 PUSH2 0xB5 SWAP2 SWAP1 PUSH2 0x341 JUMP JUMPDEST PUSH2 0x11A JUMP JUMPDEST STOP JUMPDEST PUSH2 0xC4 PUSH2 0x136 JUMP JUMPDEST STOP JUMPDEST PUSH2 0xCE PUSH2 0x19F JUMP JUMPDEST PUSH1 0x40 MLOAD PUSH2 0xDB SWAP2 SWAP1 PUSH2 0x3FF JUMP JUMPDEST PUSH1 0x40 MLOAD DUP1 SWAP2 SUB SWAP1 RETURN JUMPDEST PUSH2 0xFE PUSH1 0x4 DUP1 CALLDATASIZE SUB DUP2 ADD SWAP1 PUSH2 0xF9 SWAP2 SWAP1 PUSH2 0x36E JUMP JUMPDEST PUSH2 0x1B0 JUMP JUMPDEST STOP JUMPDEST PUSH2 0x108 PUSH2 0x25F JUMP JUMPDEST STOP JUMPDEST PUSH2 0x112 PUSH2 0x2C8 JUMP JUMPDEST STOP JUMPDEST PUSH1 0x1 SLOAD DUP2 JUMP JUMPDEST DUP1 PUSH1 0x0 DUP1 PUSH2 0x100 EXP DUP2 SLOAD DUP2 PUSH1 0xFF MUL NOT AND SWAP1 DUP4 ISZERO ISZERO MUL OR SWAP1 SSTORE POP POP JUMP JUMPDEST PUSH1 0x0 DUP1 SLOAD SWAP1 PUSH2 0x100 EXP SWAP1 DIV PUSH1 0xFF AND ISZERO PUSH2 0x184 JUMPI PUSH1 0x40 MLOAD PUSH32 0x8C379A000000000000000000000000000000000000000000000000000000000 DUP2 MSTORE PUSH1 0x4 ADD PUSH2 0x17B SWAP1 PUSH2 0x43A JUMP JUMPDEST PUSH1 0x40 MLOAD DUP1 SWAP2 SUB SWAP1 REVERT JUMPDEST PUSH1 0x1 DUP1 PUSH1 0x0 DUP3 DUP3 SLOAD PUSH2 0x196 SWAP2 SWAP1 PUSH2 0x486 JUMP JUMPDEST SWAP3 POP POP DUP2 SWAP1 SSTORE POP JUMP JUMPDEST PUSH1 0x0 DUP1 SLOAD SWAP1 PUSH2 0x100 EXP SWAP1 DIV PUSH1 0xFF AND DUP2 JUMP JUMPDEST PUSH1 0x0 DUP1 SLOAD SWAP1 PUSH2 0x100 EXP SWAP1 DIV PUSH1 0xFF AND ISZERO PUSH2 0x1FE JUMPI PUSH1 0x40 MLOAD PUSH32 0x8C379A000000000000000000000000000000000000000000000000000000000 DUP2 MSTORE PUSH1 0x4 ADD PUSH2 0x1F5 SWAP1 PUSH2 0x43A JUMP JUMPDEST PUSH1 0x40 MLOAD DUP1 SWAP2 SUB SWAP1 REVERT JUMPDEST DUP1 PUSH1 0x64 DUP2 LT PUSH2 0x242 JUMPI PUSH1 0x40 MLOAD PUSH32 0x8C379A000000000000000000000000000000000000000000000000000000000 DUP2 MSTORE PUSH1 0x4 ADD PUSH2 0x239 SWAP1 PUSH2 0x41A JUMP JUMPDEST PUSH1 0x40 MLOAD DUP1 SWAP2 SUB SWAP1 REVERT JUMPDEST DUP2 PUSH1 0x1 PUSH1 0x0 DUP3 DUP3 SLOAD PUSH2 0x254 SWAP2 SWAP1 PUSH2 0x486 JUMP JUMPDEST SWAP3 POP POP DUP2 SWAP1 SSTORE POP POP POP JUMP JUMPDEST PUSH1 0x0 DUP1 SLOAD SWAP1 PUSH2 0x100 EXP SWAP1 DIV PUSH1 0xFF AND ISZERO PUSH2 0x2AD JUMPI PUSH1 0x40 MLOAD PUSH32 0x8C379A000000000000000000000000000000000000000000000000000000000 DUP2 MSTORE PUSH1 0x4 ADD PUSH2 0x2A4 SWAP1 PUSH2 0x43A JUMP JUMPDEST PUSH1 0x40 MLOAD DUP1 SWAP2 SUB SWAP1 REVERT JUMPDEST PUSH1 0x1 DUP1 PUSH1 0x0 DUP3 DUP3 SLOAD PUSH2 0x2BF SWAP2 SWAP1 PUSH2 0x4DC JUMP JUMPDEST SWAP3 POP POP DUP2 SWAP1 SSTORE POP JUMP JUMPDEST PUSH1 0xA PUSH1 0x1 PUSH1 0x0 DUP3 DUP3 SLOAD PUSH2 0x2DB SWAP2 SWAP1 PUSH2 0x486 JUMP JUMPDEST SWAP3 POP POP DUP2 SWAP1 SSTORE POP PUSH1 0x1 DUP1 PUSH1 0x0 DUP3 DUP3 SLOAD PUSH2 0x2F4 SWAP2 SWAP1 PUSH2 0x486 JUMP JUMPDEST SWAP3 POP POP DUP2 SWAP1 SSTORE POP PUSH1 0x2 PUSH1 0x1 PUSH1 0x0 DUP3 DUP3 SLOAD PUSH2 0x30E SWAP2 SWAP1 PUSH2 0x486 JUMP JUMPDEST SWAP3 POP POP DUP2 SWAP1 SSTORE POP JUMP JUMPDEST PUSH1 0x0 DUP2 CALLDATALOAD SWAP1 POP PUSH2 0x326 DUP2 PUSH2 0x5AC JUMP JUMPDEST SWAP3 SWAP2 POP POP JUMP JUMPDEST PUSH1 0x0 DUP2 CALLDATALOAD SWAP1 POP PUSH2 0x33B DUP2 PUSH2 0x5C3 JUMP JUMPDEST SWAP3 SWAP2 POP POP JUMP JUMPDEST PUSH1 0x0 PUSH1 0x20 DUP3 DUP5 SUB SLT ISZERO PUSH2 0x357 JUMPI PUSH2 0x356 PUSH2 0x555 JUMP JUMPDEST JUMPDEST PUSH1 0x0 PUSH2 0x365 DUP5 DUP3 DUP6 ADD PUSH2 0x317 JUMP JUMPDEST SWAP2 POP POP SWAP3 SWAP2 POP POP JUMP JUMPDEST PUSH1 0x0 PUSH1 0x20 DUP3 DUP5 SUB SLT ISZERO PUSH2 0x384 JUMPI PUSH2 0x383 PUSH2 0x555 JUMP JUMPDEST JUMPDEST PUSH1 0x0 PUSH2 0x392 DUP5 DUP3 DUP6 ADD PUSH2 0x32C JUMP JUMPDEST SWAP2 POP POP SWAP3 SWAP2 POP POP JUMP JUMPDEST PUSH2 0x3A4 DUP2 PUSH2 0x510 JUMP JUMPDEST DUP3 MSTORE POP POP JUMP JUMPDEST PUSH1 0x0 PUSH2 0x3B7 PUSH1 0x6 DUP4 PUSH2 0x475 JUMP JUMPDEST SWAP2 POP PUSH2 0x3C2 DUP3 PUSH2 0x55A JUMP JUMPDEST PUSH1 0x20 DUP3 ADD SWAP1 POP SWAP2 SWAP1 POP JUMP JUMPDEST PUSH1 0x0 PUSH2 0x3DA PUSH1 0x6 DUP4 PUSH2 0x475 JUMP JUMPDEST SWAP2 POP PUSH2 0x3E5 DUP3 PUSH2 0x583 JUMP JUMPDEST PUSH1 0x20 DUP3 ADD SWAP1 POP SWAP2 SWAP1 POP JUMP JUMPDEST PUSH2 0x3F9 DUP2 PUSH2 0x51C JUMP JUMPDEST DUP3 MSTORE POP POP JUMP JUMPDEST PUSH1 0x0 PUSH1 0x20 DUP3 ADD SWAP1 POP PUSH2 0x414 PUSH1 0x0 DUP4 ADD DUP5 PUSH2 0x39B JUMP JUMPDEST SWAP3 SWAP2 POP POP JUMP JUMPDEST PUSH1 0x0 PUSH1 0x20 DUP3 ADD SWAP1 POP DUP2 DUP2 SUB PUSH1 0x0 DUP4 ADD MSTORE PUSH2 0x433 DUP2 PUSH2 0x3AA JUMP JUMPDEST SWAP1 POP SWAP2 SWAP1 POP JUMP JUMPDEST PUSH1 0x0 PUSH1 0x20 DUP3 ADD SWAP1 POP DUP2 DUP2 SUB PUSH1 0x0 DUP4 ADD MSTORE PUSH2 0x453 DUP2 PUSH2 0x3CD JUMP JUMPDEST SWAP1 POP SWAP2 SWAP1 POP JUMP JUMPDEST PUSH1 0x0 PUSH1 0x20 DUP3 ADD SWAP1 POP PUSH2 0x46F PUSH1 0x0 DUP4 ADD DUP5 PUSH2 0x3F0 JUMP JUMPDEST SWAP3 SWAP2 POP POP JUMP JUMPDEST PUSH1 0x0 DUP3 DUP3 MSTORE PUSH1 0x20 DUP3 ADD SWAP1 POP SWAP3 SWAP2 POP POP JUMP JUMPDEST PUSH1 0x0 PUSH2 0x491 DUP3 PUSH2 0x51C JUMP JUMPDEST SWAP2 POP PUSH2 0x49C DUP4 PUSH2 0x51C JUMP JUMPDEST SWAP3 POP DUP3 PUSH32 0xFFFFFFFFFFFFFFFFFFFFFFFFFFFFFFFFFFFFFFFFFFFFFFFFFFFFFFFFFFFFFFFF SUB DUP3 GT ISZERO PUSH2 0x4D1 JUMPI PUSH2 0x4D0 PUSH2 0x526 JUMP JUMPDEST JUMPDEST DUP3 DUP3 ADD SWAP1 POP SWAP3 SWAP2 POP POP JUMP JUMPDEST PUSH1 0x0 PUSH2 0x4E7 DUP3 PUSH2 0x51C JUMP JUMPDEST SWAP2 POP PUSH2 0x4F2 DUP4 PUSH2 0x51C JUMP JUMPDEST SWAP3 POP DUP3 DUP3 LT ISZERO PUSH2 0x505 JUMPI PUSH2 0x504 PUSH2 0x526 JUMP JUMPDEST JUMPDEST DUP3 DUP3 SUB SWAP1 POP SWAP3 SWAP2 POP POP JUMP JUMPDEST PUSH1 0x0 DUP2 ISZERO ISZERO SWAP1 POP SWAP2 SWAP1 POP JUMP JUMPDEST PUSH1 0x0 DUP2 SWAP1 POP SWAP2 SWAP1 POP JUMP JUMPDEST PUSH32 0x4E487B7100000000000000000000000000000000000000000000000000000000 PUSH1 0x0 MSTORE PUSH1 0x11 PUSH1 0x4 MSTORE PUSH1 0x24 PUSH1 0x0 REVERT JUMPDEST PUSH1 0x0 DUP1 REVERT JUMPDEST PUSH32 0x783E3D3130300000000000000000000000000000000000000000000000000000 PUSH1 0x0 DUP3 ADD MSTORE POP JUMP JUMPDEST PUSH32 0x7061757365640000000000000000000000000000000000000000000000000000 PUSH1 0x0 DUP3 ADD MSTORE POP JUMP JUMPDEST PUSH2 0x5B5 DUP2 PUSH2 0x510 JUMP JUMPDEST DUP2 EQ PUSH2 0x5C0 JUMPI PUSH1 0x0 DUP1 REVERT JUMPDEST POP JUMP JUMPDEST PUSH2 0x5CC DUP2 PUSH2 0x51C JUMP JUMPDEST DUP2 EQ PUSH2 0x5D7 JUMPI PUSH1 0x0 DUP1 REVERT JUMPDEST POP JUMP INVALID LOG2 PUSH5 0x6970667358 0x22 SLT KECCAK256 PUSH1 0x2A 0xBF JUMPDEST PUSH10 0x95DD1A573700F64B9DC4 0xB8 0xE9 PUSH5 0x6DD5C1335E SWAP4 0xCF SWAP7 0xA6 0xEE PUSH17 0x4429B264736F6C63430008070033000000 "
				},
				"gasEstimates": {
					"creation": {
						"codeDepositCost": "310400",
						"executionCost": "349",
						"totalCost": "310749"
					},
					"external": {
						"count()": "2430",
						"dec()": "infinite",
						"foo()": "infinite",
						"inc()": "infinite",
						"incBy(uint256)": "infinite",
						"paused()": "2468",
						"setPauce(bool)": "24702"
					}
				},
				"methodIdentifiers": {
					"count()": "06661abd",
					"dec()": "b3bcfa82",
					"foo()": "c2985578",
					"inc()": "371303c0",
					"incBy(uint256)": "70119d06",
					"paused()": "5c975abb",
					"setPauce(bool)": "18ac0598"
				}
			},
			"storageLayout": {
				"storage": [
					{
						"astId": 3,
						"contract": "contracts/Week5/FunctionModifier.sol:FUnctionModifier",
						"label": "paused",
						"offset": 0,
						"slot": "0",
						"type": "t_bool"
					},
					{
						"astId": 5,
						"contract": "contracts/Week5/FunctionModifier.sol:FUnctionModifier",
						"label": "count",
						"offset": 0,
						"slot": "1",
						"type": "t_uint256"
					}
				],
				"types": {
					"t_bool": {
						"encoding": "inplace",
						"label": "bool",
						"numberOfBytes": "1"
					},
					"t_uint256": {
						"encoding": "inplace",
						"label": "uint256",
						"numberOfBytes": "32"
					}
				}
			},
			"userdoc": {
				"kind": "user",
				"methods": {},
				"version": 1
			}
		}
	}
}