{
	"contracts/Week4/DataLocations.sol": {
		"DataLocations": {
			"abi": [
				{
					"inputs": [
						{
							"internalType": "uint256[]",
							"name": "y",
							"type": "uint256[]"
						},
						{
							"internalType": "string",
							"name": "s",
							"type": "string"
						}
					],
					"name": "examples",
					"outputs": [
						{
							"internalType": "uint256[]",
							"name": "",
							"type": "uint256[]"
						}
					],
					"stateMutability": "nonpayable",
					"type": "function"
				},
				{
					"inputs": [
						{
							"internalType": "address",
							"name": "",
							"type": "address"
						}
					],
					"name": "myStructs",
					"outputs": [
						{
							"internalType": "uint256",
							"name": "foo",
							"type": "uint256"
						},
						{
							"internalType": "string",
							"name": "text",
							"type": "string"
						}
					],
					"stateMutability": "view",
					"type": "function"
				}
			],
			"devdoc": {
				"kind": "dev",
				"methods": {},
				"version": 1
			},
			"evm": {
				"assembly": "    /* \"contracts/Week4/DataLocations.sol\":106:1112  contract DataLocations {... */\n  mstore(0x40, 0x80)\n  callvalue\n  dup1\n  iszero\n  tag_1\n  jumpi\n  0x00\n  dup1\n  revert\ntag_1:\n  pop\n  dataSize(sub_0)\n  dup1\n  dataOffset(sub_0)\n  0x00\n  codecopy\n  0x00\n  return\nstop\n\nsub_0: assembly {\n        /* \"contracts/Week4/DataLocations.sol\":106:1112  contract DataLocations {... */\n      mstore(0x40, 0x80)\n      callvalue\n      dup1\n      iszero\n      tag_1\n      jumpi\n      0x00\n      dup1\n      revert\n    tag_1:\n      pop\n      jumpi(tag_2, lt(calldatasize, 0x04))\n      shr(0xe0, calldataload(0x00))\n      dup1\n      0xb43c5d33\n      eq\n      tag_3\n      jumpi\n      dup1\n      0xfc277a95\n      eq\n      tag_4\n      jumpi\n    tag_2:\n      0x00\n      dup1\n      revert\n        /* \"contracts/Week4/DataLocations.sol\":205:250  mapping(address => MyStruct) public myStructs */\n    tag_3:\n      tag_5\n      0x04\n      dup1\n      calldatasize\n      sub\n      dup2\n      add\n      swap1\n      tag_6\n      swap2\n      swap1\n      tag_7\n      jump\t// in\n    tag_6:\n      tag_8\n      jump\t// in\n    tag_5:\n      mload(0x40)\n      tag_9\n      swap3\n      swap2\n      swap1\n      tag_10\n      jump\t// in\n    tag_9:\n      mload(0x40)\n      dup1\n      swap2\n      sub\n      swap1\n      return\n        /* \"contracts/Week4/DataLocations.sol\":317:1030  function examples(uint[] calldata y, string calldata s) external returns (uint[] memory){... */\n    tag_4:\n      tag_11\n      0x04\n      dup1\n      calldatasize\n      sub\n      dup2\n      add\n      swap1\n      tag_12\n      swap2\n      swap1\n      tag_13\n      jump\t// in\n    tag_12:\n      tag_14\n      jump\t// in\n    tag_11:\n      mload(0x40)\n      tag_15\n      swap2\n      swap1\n      tag_16\n      jump\t// in\n    tag_15:\n      mload(0x40)\n      dup1\n      swap2\n      sub\n      swap1\n      return\n        /* \"contracts/Week4/DataLocations.sol\":205:250  mapping(address => MyStruct) public myStructs */\n    tag_8:\n      mstore(0x20, 0x00)\n      dup1\n      0x00\n      mstore\n      keccak256(0x00, 0x40)\n      0x00\n      swap2\n      pop\n      swap1\n      pop\n      dup1\n      0x00\n      add\n      sload\n      swap1\n      dup1\n      0x01\n      add\n      dup1\n      sload\n      tag_17\n      swap1\n      tag_18\n      jump\t// in\n    tag_17:\n      dup1\n      0x1f\n      add\n      0x20\n      dup1\n      swap2\n      div\n      mul\n      0x20\n      add\n      mload(0x40)\n      swap1\n      dup2\n      add\n      0x40\n      mstore\n      dup1\n      swap3\n      swap2\n      swap1\n      dup2\n      dup2\n      mstore\n      0x20\n      add\n      dup3\n      dup1\n      sload\n      tag_19\n      swap1\n      tag_18\n      jump\t// in\n    tag_19:\n      dup1\n      iszero\n      tag_20\n      jumpi\n      dup1\n      0x1f\n      lt\n      tag_21\n      jumpi\n      0x0100\n      dup1\n      dup4\n      sload\n      div\n      mul\n      dup4\n      mstore\n      swap2\n      0x20\n      add\n      swap2\n      jump(tag_20)\n    tag_21:\n      dup3\n      add\n      swap2\n      swap1\n      0x00\n      mstore\n      keccak256(0x00, 0x20)\n      swap1\n    tag_22:\n      dup2\n      sload\n      dup2\n      mstore\n      swap1\n      0x01\n      add\n      swap1\n      0x20\n      add\n      dup1\n      dup4\n      gt\n      tag_22\n      jumpi\n      dup3\n      swap1\n      sub\n      0x1f\n      and\n      dup3\n      add\n      swap2\n    tag_20:\n      pop\n      pop\n      pop\n      pop\n      pop\n      swap1\n      pop\n      dup3\n      jump\t// out\n        /* \"contracts/Week4/DataLocations.sol\":317:1030  function examples(uint[] calldata y, string calldata s) external returns (uint[] memory){... */\n    tag_14:\n        /* \"contracts/Week4/DataLocations.sol\":391:404  uint[] memory */\n      0x60\n        /* \"contracts/Week4/DataLocations.sol\":439:470  MyStruct({foo:123, text:\"bar\"}) */\n      mload(0x40)\n      dup1\n      0x40\n      add\n      0x40\n      mstore\n      dup1\n        /* \"contracts/Week4/DataLocations.sol\":453:456  123 */\n      0x7b\n        /* \"contracts/Week4/DataLocations.sol\":439:470  MyStruct({foo:123, text:\"bar\"}) */\n      dup2\n      mstore\n      0x20\n      add\n      mload(0x40)\n      dup1\n      0x40\n      add\n      0x40\n      mstore\n      dup1\n      0x03\n      dup2\n      mstore\n      0x20\n      add\n      0x6261720000000000000000000000000000000000000000000000000000000000\n      dup2\n      mstore\n      pop\n      dup2\n      mstore\n      pop\n        /* \"contracts/Week4/DataLocations.sol\":415:424  myStructs */\n      0x00\n        /* \"contracts/Week4/DataLocations.sol\":415:436  myStructs[msg.sender] */\n      dup1\n        /* \"contracts/Week4/DataLocations.sol\":425:435  msg.sender */\n      caller\n        /* \"contracts/Week4/DataLocations.sol\":415:436  myStructs[msg.sender] */\n      0xffffffffffffffffffffffffffffffffffffffff\n      and\n      0xffffffffffffffffffffffffffffffffffffffff\n      and\n      dup2\n      mstore\n      0x20\n      add\n      swap1\n      dup2\n      mstore\n      0x20\n      add\n      0x00\n      keccak256\n        /* \"contracts/Week4/DataLocations.sol\":415:470  myStructs[msg.sender] = MyStruct({foo:123, text:\"bar\"}) */\n      0x00\n      dup3\n      add\n      mload\n      dup2\n      0x00\n      add\n      sstore\n      0x20\n      dup3\n      add\n      mload\n      dup2\n      0x01\n      add\n      swap1\n      dup2\n      tag_24\n      swap2\n      swap1\n      tag_25\n      jump\t// in\n    tag_24:\n      pop\n      swap1\n      pop\n      pop\n        /* \"contracts/Week4/DataLocations.sol\":560:585  MyStruct storage myStruct */\n      0x00\n        /* \"contracts/Week4/DataLocations.sol\":589:598  myStructs */\n      dup1\n        /* \"contracts/Week4/DataLocations.sol\":589:610  myStructs[msg.sender] */\n      0x00\n        /* \"contracts/Week4/DataLocations.sol\":599:609  msg.sender */\n      caller\n        /* \"contracts/Week4/DataLocations.sol\":589:610  myStructs[msg.sender] */\n      0xffffffffffffffffffffffffffffffffffffffff\n      and\n      0xffffffffffffffffffffffffffffffffffffffff\n      and\n      dup2\n      mstore\n      0x20\n      add\n      swap1\n      dup2\n      mstore\n      0x20\n      add\n      0x00\n      keccak256\n        /* \"contracts/Week4/DataLocations.sol\":560:610  MyStruct storage myStruct =  myStructs[msg.sender] */\n      swap1\n      pop\n        /* \"contracts/Week4/DataLocations.sol\":693:714  myStruct.text = \"foo\" */\n      mload(0x40)\n      dup1\n      0x40\n      add\n      0x40\n      mstore\n      dup1\n      0x03\n      dup2\n      mstore\n      0x20\n      add\n      0x666f6f0000000000000000000000000000000000000000000000000000000000\n      dup2\n      mstore\n      pop\n        /* \"contracts/Week4/DataLocations.sol\":693:701  myStruct */\n      dup2\n        /* \"contracts/Week4/DataLocations.sol\":693:706  myStruct.text */\n      0x01\n      add\n        /* \"contracts/Week4/DataLocations.sol\":693:714  myStruct.text = \"foo\" */\n      swap1\n      dup2\n      tag_26\n      swap2\n      swap1\n      tag_25\n      jump\t// in\n    tag_26:\n      pop\n        /* \"contracts/Week4/DataLocations.sol\":765:789  MyStruct memory readOnly */\n      0x00\n        /* \"contracts/Week4/DataLocations.sol\":793:802  myStructs */\n      dup1\n        /* \"contracts/Week4/DataLocations.sol\":793:814  myStructs[msg.sender] */\n      0x00\n        /* \"contracts/Week4/DataLocations.sol\":803:813  msg.sender */\n      caller\n        /* \"contracts/Week4/DataLocations.sol\":793:814  myStructs[msg.sender] */\n      0xffffffffffffffffffffffffffffffffffffffff\n      and\n      0xffffffffffffffffffffffffffffffffffffffff\n      and\n      dup2\n      mstore\n      0x20\n      add\n      swap1\n      dup2\n      mstore\n      0x20\n      add\n      0x00\n      keccak256\n        /* \"contracts/Week4/DataLocations.sol\":765:814  MyStruct memory readOnly =  myStructs[msg.sender] */\n      mload(0x40)\n      dup1\n      0x40\n      add\n      0x40\n      mstore\n      swap1\n      dup2\n      0x00\n      dup3\n      add\n      sload\n      dup2\n      mstore\n      0x20\n      add\n      0x01\n      dup3\n      add\n      dup1\n      sload\n      tag_27\n      swap1\n      tag_18\n      jump\t// in\n    tag_27:\n      dup1\n      0x1f\n      add\n      0x20\n      dup1\n      swap2\n      div\n      mul\n      0x20\n      add\n      mload(0x40)\n      swap1\n      dup2\n      add\n      0x40\n      mstore\n      dup1\n      swap3\n      swap2\n      swap1\n      dup2\n      dup2\n      mstore\n      0x20\n      add\n      dup3\n      dup1\n      sload\n      tag_28\n      swap1\n      tag_18\n      jump\t// in\n    tag_28:\n      dup1\n      iszero\n      tag_29\n      jumpi\n      dup1\n      0x1f\n      lt\n      tag_30\n      jumpi\n      0x0100\n      dup1\n      dup4\n      sload\n      div\n      mul\n      dup4\n      mstore\n      swap2\n      0x20\n      add\n      swap2\n      jump(tag_29)\n    tag_30:\n      dup3\n      add\n      swap2\n      swap1\n      0x00\n      mstore\n      keccak256(0x00, 0x20)\n      swap1\n    tag_31:\n      dup2\n      sload\n      dup2\n      mstore\n      swap1\n      0x01\n      add\n      swap1\n      0x20\n      add\n      dup1\n      dup4\n      gt\n      tag_31\n      jumpi\n      dup3\n      swap1\n      sub\n      0x1f\n      and\n      dup3\n      add\n      swap2\n    tag_29:\n      pop\n      pop\n      pop\n      pop\n      pop\n      dup2\n      mstore\n      pop\n      pop\n      swap1\n      pop\n        /* \"contracts/Week4/DataLocations.sol\":892:895  456 */\n      0x01c8\n        /* \"contracts/Week4/DataLocations.sol\":877:885  readOnly */\n      dup2\n        /* \"contracts/Week4/DataLocations.sol\":877:889  readOnly.foo */\n      0x00\n      add\n        /* \"contracts/Week4/DataLocations.sol\":877:895  readOnly.foo = 456 */\n      dup2\n      dup2\n      mstore\n      pop\n      pop\n        /* \"contracts/Week4/DataLocations.sol\":915:927  _internal(y) */\n      tag_32\n        /* \"contracts/Week4/DataLocations.sol\":925:926  y */\n      dup8\n      dup8\n        /* \"contracts/Week4/DataLocations.sol\":915:927  _internal(y) */\n      dup1\n      dup1\n      0x20\n      mul\n      0x20\n      add\n      mload(0x40)\n      swap1\n      dup2\n      add\n      0x40\n      mstore\n      dup1\n      swap4\n      swap3\n      swap2\n      swap1\n      dup2\n      dup2\n      mstore\n      0x20\n      add\n      dup4\n      dup4\n      0x20\n      mul\n      dup1\n      dup3\n      dup5\n      calldatacopy\n      0x00\n      dup2\n      dup5\n      add\n      mstore\n      not(0x1f)\n      0x1f\n      dup3\n      add\n      and\n      swap1\n      pop\n      dup1\n      dup4\n      add\n      swap3\n      pop\n      pop\n      pop\n      pop\n      pop\n      pop\n      pop\n        /* \"contracts/Week4/DataLocations.sol\":915:924  _internal */\n      tag_33\n        /* \"contracts/Week4/DataLocations.sol\":915:927  _internal(y) */\n      jump\t// in\n    tag_32:\n        /* \"contracts/Week4/DataLocations.sol\":938:958  uint[] memory memArr */\n      0x00\n        /* \"contracts/Week4/DataLocations.sol\":972:973  3 */\n      0x03\n        /* \"contracts/Week4/DataLocations.sol\":961:974  new uint[](3) */\n      0xffffffffffffffff\n      dup2\n      gt\n      iszero\n      tag_34\n      jumpi\n      tag_35\n      tag_36\n      jump\t// in\n    tag_35:\n    tag_34:\n      mload(0x40)\n      swap1\n      dup1\n      dup3\n      mstore\n      dup1\n      0x20\n      mul\n      0x20\n      add\n      dup3\n      add\n      0x40\n      mstore\n      dup1\n      iszero\n      tag_37\n      jumpi\n      dup2\n      0x20\n      add\n      0x20\n      dup3\n      mul\n      dup1\n      calldatasize\n      dup4\n      calldatacopy\n      dup1\n      dup3\n      add\n      swap2\n      pop\n      pop\n      swap1\n      pop\n    tag_37:\n      pop\n        /* \"contracts/Week4/DataLocations.sol\":938:974  uint[] memory memArr = new uint[](3) */\n      swap1\n      pop\n        /* \"contracts/Week4/DataLocations.sol\":996:999  234 */\n      0xea\n        /* \"contracts/Week4/DataLocations.sol\":984:990  memArr */\n      dup2\n        /* \"contracts/Week4/DataLocations.sol\":991:992  0 */\n      0x00\n        /* \"contracts/Week4/DataLocations.sol\":984:993  memArr[0] */\n      dup2\n      mload\n      dup2\n      lt\n      tag_38\n      jumpi\n      tag_39\n      tag_40\n      jump\t// in\n    tag_39:\n    tag_38:\n      0x20\n      mul\n      0x20\n      add\n      add\n        /* \"contracts/Week4/DataLocations.sol\":984:999  memArr[0] = 234 */\n      dup2\n      dup2\n      mstore\n      pop\n      pop\n        /* \"contracts/Week4/DataLocations.sol\":1017:1023  memArr */\n      dup1\n        /* \"contracts/Week4/DataLocations.sol\":1010:1023  return memArr */\n      swap4\n      pop\n      pop\n      pop\n      pop\n        /* \"contracts/Week4/DataLocations.sol\":317:1030  function examples(uint[] calldata y, string calldata s) external returns (uint[] memory){... */\n      swap5\n      swap4\n      pop\n      pop\n      pop\n      pop\n      jump\t// out\n        /* \"contracts/Week4/DataLocations.sol\":1036:1110  function _internal(uint[] memory y) private {... */\n    tag_33:\n        /* \"contracts/Week4/DataLocations.sol\":1090:1096  uint x */\n      0x00\n        /* \"contracts/Week4/DataLocations.sol\":1099:1100  y */\n      dup2\n        /* \"contracts/Week4/DataLocations.sol\":1101:1102  0 */\n      0x00\n        /* \"contracts/Week4/DataLocations.sol\":1099:1103  y[0] */\n      dup2\n      mload\n      dup2\n      lt\n      tag_42\n      jumpi\n      tag_43\n      tag_40\n      jump\t// in\n    tag_43:\n    tag_42:\n      0x20\n      mul\n      0x20\n      add\n      add\n      mload\n        /* \"contracts/Week4/DataLocations.sol\":1090:1103  uint x = y[0] */\n      swap1\n      pop\n        /* \"contracts/Week4/DataLocations.sol\":1080:1110  {... */\n      pop\n        /* \"contracts/Week4/DataLocations.sol\":1036:1110  function _internal(uint[] memory y) private {... */\n      pop\n      jump\t// out\n        /* \"#utility.yul\":88:205   */\n    tag_45:\n        /* \"#utility.yul\":197:198   */\n      0x00\n        /* \"#utility.yul\":194:195   */\n      dup1\n        /* \"#utility.yul\":187:199   */\n      revert\n        /* \"#utility.yul\":211:328   */\n    tag_46:\n        /* \"#utility.yul\":320:321   */\n      0x00\n        /* \"#utility.yul\":317:318   */\n      dup1\n        /* \"#utility.yul\":310:322   */\n      revert\n        /* \"#utility.yul\":334:460   */\n    tag_47:\n        /* \"#utility.yul\":371:378   */\n      0x00\n        /* \"#utility.yul\":411:453   */\n      0xffffffffffffffffffffffffffffffffffffffff\n        /* \"#utility.yul\":404:409   */\n      dup3\n        /* \"#utility.yul\":400:454   */\n      and\n        /* \"#utility.yul\":389:454   */\n      swap1\n      pop\n        /* \"#utility.yul\":334:460   */\n      swap2\n      swap1\n      pop\n      jump\t// out\n        /* \"#utility.yul\":466:562   */\n    tag_48:\n        /* \"#utility.yul\":503:510   */\n      0x00\n        /* \"#utility.yul\":532:556   */\n      tag_92\n        /* \"#utility.yul\":550:555   */\n      dup3\n        /* \"#utility.yul\":532:556   */\n      tag_47\n      jump\t// in\n    tag_92:\n        /* \"#utility.yul\":521:556   */\n      swap1\n      pop\n        /* \"#utility.yul\":466:562   */\n      swap2\n      swap1\n      pop\n      jump\t// out\n        /* \"#utility.yul\":568:690   */\n    tag_49:\n        /* \"#utility.yul\":641:665   */\n      tag_94\n        /* \"#utility.yul\":659:664   */\n      dup2\n        /* \"#utility.yul\":641:665   */\n      tag_48\n      jump\t// in\n    tag_94:\n        /* \"#utility.yul\":634:639   */\n      dup2\n        /* \"#utility.yul\":631:666   */\n      eq\n        /* \"#utility.yul\":621:684   */\n      tag_95\n      jumpi\n        /* \"#utility.yul\":680:681   */\n      0x00\n        /* \"#utility.yul\":677:678   */\n      dup1\n        /* \"#utility.yul\":670:682   */\n      revert\n        /* \"#utility.yul\":621:684   */\n    tag_95:\n        /* \"#utility.yul\":568:690   */\n      pop\n      jump\t// out\n        /* \"#utility.yul\":696:835   */\n    tag_50:\n        /* \"#utility.yul\":742:747   */\n      0x00\n        /* \"#utility.yul\":780:786   */\n      dup2\n        /* \"#utility.yul\":767:787   */\n      calldataload\n        /* \"#utility.yul\":758:787   */\n      swap1\n      pop\n        /* \"#utility.yul\":796:829   */\n      tag_97\n        /* \"#utility.yul\":823:828   */\n      dup2\n        /* \"#utility.yul\":796:829   */\n      tag_49\n      jump\t// in\n    tag_97:\n        /* \"#utility.yul\":696:835   */\n      swap3\n      swap2\n      pop\n      pop\n      jump\t// out\n        /* \"#utility.yul\":841:1170   */\n    tag_7:\n        /* \"#utility.yul\":900:906   */\n      0x00\n        /* \"#utility.yul\":949:951   */\n      0x20\n        /* \"#utility.yul\":937:946   */\n      dup3\n        /* \"#utility.yul\":928:935   */\n      dup5\n        /* \"#utility.yul\":924:947   */\n      sub\n        /* \"#utility.yul\":920:952   */\n      slt\n        /* \"#utility.yul\":917:1036   */\n      iszero\n      tag_99\n      jumpi\n        /* \"#utility.yul\":955:1034   */\n      tag_100\n      tag_45\n      jump\t// in\n    tag_100:\n        /* \"#utility.yul\":917:1036   */\n    tag_99:\n        /* \"#utility.yul\":1075:1076   */\n      0x00\n        /* \"#utility.yul\":1100:1153   */\n      tag_101\n        /* \"#utility.yul\":1145:1152   */\n      dup5\n        /* \"#utility.yul\":1136:1142   */\n      dup3\n        /* \"#utility.yul\":1125:1134   */\n      dup6\n        /* \"#utility.yul\":1121:1143   */\n      add\n        /* \"#utility.yul\":1100:1153   */\n      tag_50\n      jump\t// in\n    tag_101:\n        /* \"#utility.yul\":1090:1153   */\n      swap2\n      pop\n        /* \"#utility.yul\":1046:1163   */\n      pop\n        /* \"#utility.yul\":841:1170   */\n      swap3\n      swap2\n      pop\n      pop\n      jump\t// out\n        /* \"#utility.yul\":1176:1253   */\n    tag_51:\n        /* \"#utility.yul\":1213:1220   */\n      0x00\n        /* \"#utility.yul\":1242:1247   */\n      dup2\n        /* \"#utility.yul\":1231:1247   */\n      swap1\n      pop\n        /* \"#utility.yul\":1176:1253   */\n      swap2\n      swap1\n      pop\n      jump\t// out\n        /* \"#utility.yul\":1259:1377   */\n    tag_52:\n        /* \"#utility.yul\":1346:1370   */\n      tag_104\n        /* \"#utility.yul\":1364:1369   */\n      dup2\n        /* \"#utility.yul\":1346:1370   */\n      tag_51\n      jump\t// in\n    tag_104:\n        /* \"#utility.yul\":1341:1344   */\n      dup3\n        /* \"#utility.yul\":1334:1371   */\n      mstore\n        /* \"#utility.yul\":1259:1377   */\n      pop\n      pop\n      jump\t// out\n        /* \"#utility.yul\":1383:1482   */\n    tag_53:\n        /* \"#utility.yul\":1435:1441   */\n      0x00\n        /* \"#utility.yul\":1469:1474   */\n      dup2\n        /* \"#utility.yul\":1463:1475   */\n      mload\n        /* \"#utility.yul\":1453:1475   */\n      swap1\n      pop\n        /* \"#utility.yul\":1383:1482   */\n      swap2\n      swap1\n      pop\n      jump\t// out\n        /* \"#utility.yul\":1488:1657   */\n    tag_54:\n        /* \"#utility.yul\":1572:1583   */\n      0x00\n        /* \"#utility.yul\":1606:1612   */\n      dup3\n        /* \"#utility.yul\":1601:1604   */\n      dup3\n        /* \"#utility.yul\":1594:1613   */\n      mstore\n        /* \"#utility.yul\":1646:1650   */\n      0x20\n        /* \"#utility.yul\":1641:1644   */\n      dup3\n        /* \"#utility.yul\":1637:1651   */\n      add\n        /* \"#utility.yul\":1622:1651   */\n      swap1\n      pop\n        /* \"#utility.yul\":1488:1657   */\n      swap3\n      swap2\n      pop\n      pop\n      jump\t// out\n        /* \"#utility.yul\":1663:1970   */\n    tag_55:\n        /* \"#utility.yul\":1731:1732   */\n      0x00\n        /* \"#utility.yul\":1741:1854   */\n    tag_108:\n        /* \"#utility.yul\":1755:1761   */\n      dup4\n        /* \"#utility.yul\":1752:1753   */\n      dup2\n        /* \"#utility.yul\":1749:1762   */\n      lt\n        /* \"#utility.yul\":1741:1854   */\n      iszero\n      tag_110\n      jumpi\n        /* \"#utility.yul\":1840:1841   */\n      dup1\n        /* \"#utility.yul\":1835:1838   */\n      dup3\n        /* \"#utility.yul\":1831:1842   */\n      add\n        /* \"#utility.yul\":1825:1843   */\n      mload\n        /* \"#utility.yul\":1821:1822   */\n      dup2\n        /* \"#utility.yul\":1816:1819   */\n      dup5\n        /* \"#utility.yul\":1812:1823   */\n      add\n        /* \"#utility.yul\":1805:1844   */\n      mstore\n        /* \"#utility.yul\":1777:1779   */\n      0x20\n        /* \"#utility.yul\":1774:1775   */\n      dup2\n        /* \"#utility.yul\":1770:1780   */\n      add\n        /* \"#utility.yul\":1765:1780   */\n      swap1\n      pop\n        /* \"#utility.yul\":1741:1854   */\n      jump(tag_108)\n    tag_110:\n        /* \"#utility.yul\":1872:1878   */\n      dup4\n        /* \"#utility.yul\":1869:1870   */\n      dup2\n        /* \"#utility.yul\":1866:1879   */\n      gt\n        /* \"#utility.yul\":1863:1964   */\n      iszero\n      tag_111\n      jumpi\n        /* \"#utility.yul\":1952:1953   */\n      0x00\n        /* \"#utility.yul\":1943:1949   */\n      dup5\n        /* \"#utility.yul\":1938:1941   */\n      dup5\n        /* \"#utility.yul\":1934:1950   */\n      add\n        /* \"#utility.yul\":1927:1954   */\n      mstore\n        /* \"#utility.yul\":1863:1964   */\n    tag_111:\n        /* \"#utility.yul\":1712:1970   */\n      pop\n        /* \"#utility.yul\":1663:1970   */\n      pop\n      pop\n      pop\n      jump\t// out\n        /* \"#utility.yul\":1976:2078   */\n    tag_56:\n        /* \"#utility.yul\":2017:2023   */\n      0x00\n        /* \"#utility.yul\":2068:2070   */\n      0x1f\n        /* \"#utility.yul\":2064:2071   */\n      not\n        /* \"#utility.yul\":2059:2061   */\n      0x1f\n        /* \"#utility.yul\":2052:2057   */\n      dup4\n        /* \"#utility.yul\":2048:2062   */\n      add\n        /* \"#utility.yul\":2044:2072   */\n      and\n        /* \"#utility.yul\":2034:2072   */\n      swap1\n      pop\n        /* \"#utility.yul\":1976:2078   */\n      swap2\n      swap1\n      pop\n      jump\t// out\n        /* \"#utility.yul\":2084:2448   */\n    tag_57:\n        /* \"#utility.yul\":2172:2175   */\n      0x00\n        /* \"#utility.yul\":2200:2239   */\n      tag_114\n        /* \"#utility.yul\":2233:2238   */\n      dup3\n        /* \"#utility.yul\":2200:2239   */\n      tag_53\n      jump\t// in\n    tag_114:\n        /* \"#utility.yul\":2255:2326   */\n      tag_115\n        /* \"#utility.yul\":2319:2325   */\n      dup2\n        /* \"#utility.yul\":2314:2317   */\n      dup6\n        /* \"#utility.yul\":2255:2326   */\n      tag_54\n      jump\t// in\n    tag_115:\n        /* \"#utility.yul\":2248:2326   */\n      swap4\n      pop\n        /* \"#utility.yul\":2335:2387   */\n      tag_116\n        /* \"#utility.yul\":2380:2386   */\n      dup2\n        /* \"#utility.yul\":2375:2378   */\n      dup6\n        /* \"#utility.yul\":2368:2372   */\n      0x20\n        /* \"#utility.yul\":2361:2366   */\n      dup7\n        /* \"#utility.yul\":2357:2373   */\n      add\n        /* \"#utility.yul\":2335:2387   */\n      tag_55\n      jump\t// in\n    tag_116:\n        /* \"#utility.yul\":2412:2441   */\n      tag_117\n        /* \"#utility.yul\":2434:2440   */\n      dup2\n        /* \"#utility.yul\":2412:2441   */\n      tag_56\n      jump\t// in\n    tag_117:\n        /* \"#utility.yul\":2407:2410   */\n      dup5\n        /* \"#utility.yul\":2403:2442   */\n      add\n        /* \"#utility.yul\":2396:2442   */\n      swap2\n      pop\n        /* \"#utility.yul\":2176:2448   */\n      pop\n        /* \"#utility.yul\":2084:2448   */\n      swap3\n      swap2\n      pop\n      pop\n      jump\t// out\n        /* \"#utility.yul\":2454:2877   */\n    tag_10:\n        /* \"#utility.yul\":2595:2599   */\n      0x00\n        /* \"#utility.yul\":2633:2635   */\n      0x40\n        /* \"#utility.yul\":2622:2631   */\n      dup3\n        /* \"#utility.yul\":2618:2636   */\n      add\n        /* \"#utility.yul\":2610:2636   */\n      swap1\n      pop\n        /* \"#utility.yul\":2646:2717   */\n      tag_119\n        /* \"#utility.yul\":2714:2715   */\n      0x00\n        /* \"#utility.yul\":2703:2712   */\n      dup4\n        /* \"#utility.yul\":2699:2716   */\n      add\n        /* \"#utility.yul\":2690:2696   */\n      dup6\n        /* \"#utility.yul\":2646:2717   */\n      tag_52\n      jump\t// in\n    tag_119:\n        /* \"#utility.yul\":2764:2773   */\n      dup2\n        /* \"#utility.yul\":2758:2762   */\n      dup2\n        /* \"#utility.yul\":2754:2774   */\n      sub\n        /* \"#utility.yul\":2749:2751   */\n      0x20\n        /* \"#utility.yul\":2738:2747   */\n      dup4\n        /* \"#utility.yul\":2734:2752   */\n      add\n        /* \"#utility.yul\":2727:2775   */\n      mstore\n        /* \"#utility.yul\":2792:2870   */\n      tag_120\n        /* \"#utility.yul\":2865:2869   */\n      dup2\n        /* \"#utility.yul\":2856:2862   */\n      dup5\n        /* \"#utility.yul\":2792:2870   */\n      tag_57\n      jump\t// in\n    tag_120:\n        /* \"#utility.yul\":2784:2870   */\n      swap1\n      pop\n        /* \"#utility.yul\":2454:2877   */\n      swap4\n      swap3\n      pop\n      pop\n      pop\n      jump\t// out\n        /* \"#utility.yul\":2883:3000   */\n    tag_58:\n        /* \"#utility.yul\":2992:2993   */\n      0x00\n        /* \"#utility.yul\":2989:2990   */\n      dup1\n        /* \"#utility.yul\":2982:2994   */\n      revert\n        /* \"#utility.yul\":3006:3123   */\n    tag_59:\n        /* \"#utility.yul\":3115:3116   */\n      0x00\n        /* \"#utility.yul\":3112:3113   */\n      dup1\n        /* \"#utility.yul\":3105:3117   */\n      revert\n        /* \"#utility.yul\":3129:3246   */\n    tag_60:\n        /* \"#utility.yul\":3238:3239   */\n      0x00\n        /* \"#utility.yul\":3235:3236   */\n      dup1\n        /* \"#utility.yul\":3228:3240   */\n      revert\n        /* \"#utility.yul\":3269:3837   */\n    tag_61:\n        /* \"#utility.yul\":3342:3350   */\n      0x00\n        /* \"#utility.yul\":3352:3358   */\n      dup1\n        /* \"#utility.yul\":3402:3405   */\n      dup4\n        /* \"#utility.yul\":3395:3399   */\n      0x1f\n        /* \"#utility.yul\":3387:3393   */\n      dup5\n        /* \"#utility.yul\":3383:3400   */\n      add\n        /* \"#utility.yul\":3379:3406   */\n      slt\n        /* \"#utility.yul\":3369:3491   */\n      tag_125\n      jumpi\n        /* \"#utility.yul\":3410:3489   */\n      tag_126\n      tag_58\n      jump\t// in\n    tag_126:\n        /* \"#utility.yul\":3369:3491   */\n    tag_125:\n        /* \"#utility.yul\":3523:3529   */\n      dup3\n        /* \"#utility.yul\":3510:3530   */\n      calldataload\n        /* \"#utility.yul\":3500:3530   */\n      swap1\n      pop\n        /* \"#utility.yul\":3553:3571   */\n      0xffffffffffffffff\n        /* \"#utility.yul\":3545:3551   */\n      dup2\n        /* \"#utility.yul\":3542:3572   */\n      gt\n        /* \"#utility.yul\":3539:3656   */\n      iszero\n      tag_127\n      jumpi\n        /* \"#utility.yul\":3575:3654   */\n      tag_128\n      tag_59\n      jump\t// in\n    tag_128:\n        /* \"#utility.yul\":3539:3656   */\n    tag_127:\n        /* \"#utility.yul\":3689:3693   */\n      0x20\n        /* \"#utility.yul\":3681:3687   */\n      dup4\n        /* \"#utility.yul\":3677:3694   */\n      add\n        /* \"#utility.yul\":3665:3694   */\n      swap2\n      pop\n        /* \"#utility.yul\":3743:3746   */\n      dup4\n        /* \"#utility.yul\":3735:3739   */\n      0x20\n        /* \"#utility.yul\":3727:3733   */\n      dup3\n        /* \"#utility.yul\":3723:3740   */\n      mul\n        /* \"#utility.yul\":3713:3721   */\n      dup4\n        /* \"#utility.yul\":3709:3741   */\n      add\n        /* \"#utility.yul\":3706:3747   */\n      gt\n        /* \"#utility.yul\":3703:3831   */\n      iszero\n      tag_129\n      jumpi\n        /* \"#utility.yul\":3750:3829   */\n      tag_130\n      tag_60\n      jump\t// in\n    tag_130:\n        /* \"#utility.yul\":3703:3831   */\n    tag_129:\n        /* \"#utility.yul\":3269:3837   */\n      swap3\n      pop\n      swap3\n      swap1\n      pop\n      jump\t// out\n        /* \"#utility.yul\":3857:4410   */\n    tag_62:\n        /* \"#utility.yul\":3915:3923   */\n      0x00\n        /* \"#utility.yul\":3925:3931   */\n      dup1\n        /* \"#utility.yul\":3975:3978   */\n      dup4\n        /* \"#utility.yul\":3968:3972   */\n      0x1f\n        /* \"#utility.yul\":3960:3966   */\n      dup5\n        /* \"#utility.yul\":3956:3973   */\n      add\n        /* \"#utility.yul\":3952:3979   */\n      slt\n        /* \"#utility.yul\":3942:4064   */\n      tag_132\n      jumpi\n        /* \"#utility.yul\":3983:4062   */\n      tag_133\n      tag_58\n      jump\t// in\n    tag_133:\n        /* \"#utility.yul\":3942:4064   */\n    tag_132:\n        /* \"#utility.yul\":4096:4102   */\n      dup3\n        /* \"#utility.yul\":4083:4103   */\n      calldataload\n        /* \"#utility.yul\":4073:4103   */\n      swap1\n      pop\n        /* \"#utility.yul\":4126:4144   */\n      0xffffffffffffffff\n        /* \"#utility.yul\":4118:4124   */\n      dup2\n        /* \"#utility.yul\":4115:4145   */\n      gt\n        /* \"#utility.yul\":4112:4229   */\n      iszero\n      tag_134\n      jumpi\n        /* \"#utility.yul\":4148:4227   */\n      tag_135\n      tag_59\n      jump\t// in\n    tag_135:\n        /* \"#utility.yul\":4112:4229   */\n    tag_134:\n        /* \"#utility.yul\":4262:4266   */\n      0x20\n        /* \"#utility.yul\":4254:4260   */\n      dup4\n        /* \"#utility.yul\":4250:4267   */\n      add\n        /* \"#utility.yul\":4238:4267   */\n      swap2\n      pop\n        /* \"#utility.yul\":4316:4319   */\n      dup4\n        /* \"#utility.yul\":4308:4312   */\n      0x01\n        /* \"#utility.yul\":4300:4306   */\n      dup3\n        /* \"#utility.yul\":4296:4313   */\n      mul\n        /* \"#utility.yul\":4286:4294   */\n      dup4\n        /* \"#utility.yul\":4282:4314   */\n      add\n        /* \"#utility.yul\":4279:4320   */\n      gt\n        /* \"#utility.yul\":4276:4404   */\n      iszero\n      tag_136\n      jumpi\n        /* \"#utility.yul\":4323:4402   */\n      tag_137\n      tag_60\n      jump\t// in\n    tag_137:\n        /* \"#utility.yul\":4276:4404   */\n    tag_136:\n        /* \"#utility.yul\":3857:4410   */\n      swap3\n      pop\n      swap3\n      swap1\n      pop\n      jump\t// out\n        /* \"#utility.yul\":4416:5320   */\n    tag_13:\n        /* \"#utility.yul\":4523:4529   */\n      0x00\n        /* \"#utility.yul\":4531:4537   */\n      dup1\n        /* \"#utility.yul\":4539:4545   */\n      0x00\n        /* \"#utility.yul\":4547:4553   */\n      dup1\n        /* \"#utility.yul\":4596:4598   */\n      0x40\n        /* \"#utility.yul\":4584:4593   */\n      dup6\n        /* \"#utility.yul\":4575:4582   */\n      dup8\n        /* \"#utility.yul\":4571:4594   */\n      sub\n        /* \"#utility.yul\":4567:4599   */\n      slt\n        /* \"#utility.yul\":4564:4683   */\n      iszero\n      tag_139\n      jumpi\n        /* \"#utility.yul\":4602:4681   */\n      tag_140\n      tag_45\n      jump\t// in\n    tag_140:\n        /* \"#utility.yul\":4564:4683   */\n    tag_139:\n        /* \"#utility.yul\":4750:4751   */\n      0x00\n        /* \"#utility.yul\":4739:4748   */\n      dup6\n        /* \"#utility.yul\":4735:4752   */\n      add\n        /* \"#utility.yul\":4722:4753   */\n      calldataload\n        /* \"#utility.yul\":4780:4798   */\n      0xffffffffffffffff\n        /* \"#utility.yul\":4772:4778   */\n      dup2\n        /* \"#utility.yul\":4769:4799   */\n      gt\n        /* \"#utility.yul\":4766:4883   */\n      iszero\n      tag_141\n      jumpi\n        /* \"#utility.yul\":4802:4881   */\n      tag_142\n      tag_46\n      jump\t// in\n    tag_142:\n        /* \"#utility.yul\":4766:4883   */\n    tag_141:\n        /* \"#utility.yul\":4915:4995   */\n      tag_143\n        /* \"#utility.yul\":4987:4994   */\n      dup8\n        /* \"#utility.yul\":4978:4984   */\n      dup3\n        /* \"#utility.yul\":4967:4976   */\n      dup9\n        /* \"#utility.yul\":4963:4985   */\n      add\n        /* \"#utility.yul\":4915:4995   */\n      tag_61\n      jump\t// in\n    tag_143:\n        /* \"#utility.yul\":4897:4995   */\n      swap5\n      pop\n      swap5\n      pop\n        /* \"#utility.yul\":4693:5005   */\n      pop\n        /* \"#utility.yul\":5072:5074   */\n      0x20\n        /* \"#utility.yul\":5061:5070   */\n      dup6\n        /* \"#utility.yul\":5057:5075   */\n      add\n        /* \"#utility.yul\":5044:5076   */\n      calldataload\n        /* \"#utility.yul\":5103:5121   */\n      0xffffffffffffffff\n        /* \"#utility.yul\":5095:5101   */\n      dup2\n        /* \"#utility.yul\":5092:5122   */\n      gt\n        /* \"#utility.yul\":5089:5206   */\n      iszero\n      tag_144\n      jumpi\n        /* \"#utility.yul\":5125:5204   */\n      tag_145\n      tag_46\n      jump\t// in\n    tag_145:\n        /* \"#utility.yul\":5089:5206   */\n    tag_144:\n        /* \"#utility.yul\":5238:5303   */\n      tag_146\n        /* \"#utility.yul\":5295:5302   */\n      dup8\n        /* \"#utility.yul\":5286:5292   */\n      dup3\n        /* \"#utility.yul\":5275:5284   */\n      dup9\n        /* \"#utility.yul\":5271:5293   */\n      add\n        /* \"#utility.yul\":5238:5303   */\n      tag_62\n      jump\t// in\n    tag_146:\n        /* \"#utility.yul\":5220:5303   */\n      swap3\n      pop\n      swap3\n      pop\n        /* \"#utility.yul\":5015:5313   */\n      pop\n        /* \"#utility.yul\":4416:5320   */\n      swap3\n      swap6\n      swap2\n      swap5\n      pop\n      swap3\n      pop\n      jump\t// out\n        /* \"#utility.yul\":5326:5440   */\n    tag_63:\n        /* \"#utility.yul\":5393:5399   */\n      0x00\n        /* \"#utility.yul\":5427:5432   */\n      dup2\n        /* \"#utility.yul\":5421:5433   */\n      mload\n        /* \"#utility.yul\":5411:5433   */\n      swap1\n      pop\n        /* \"#utility.yul\":5326:5440   */\n      swap2\n      swap1\n      pop\n      jump\t// out\n        /* \"#utility.yul\":5446:5630   */\n    tag_64:\n        /* \"#utility.yul\":5545:5556   */\n      0x00\n        /* \"#utility.yul\":5579:5585   */\n      dup3\n        /* \"#utility.yul\":5574:5577   */\n      dup3\n        /* \"#utility.yul\":5567:5586   */\n      mstore\n        /* \"#utility.yul\":5619:5623   */\n      0x20\n        /* \"#utility.yul\":5614:5617   */\n      dup3\n        /* \"#utility.yul\":5610:5624   */\n      add\n        /* \"#utility.yul\":5595:5624   */\n      swap1\n      pop\n        /* \"#utility.yul\":5446:5630   */\n      swap3\n      swap2\n      pop\n      pop\n      jump\t// out\n        /* \"#utility.yul\":5636:5768   */\n    tag_65:\n        /* \"#utility.yul\":5703:5707   */\n      0x00\n        /* \"#utility.yul\":5726:5729   */\n      dup2\n        /* \"#utility.yul\":5718:5729   */\n      swap1\n      pop\n        /* \"#utility.yul\":5756:5760   */\n      0x20\n        /* \"#utility.yul\":5751:5754   */\n      dup3\n        /* \"#utility.yul\":5747:5761   */\n      add\n        /* \"#utility.yul\":5739:5761   */\n      swap1\n      pop\n        /* \"#utility.yul\":5636:5768   */\n      swap2\n      swap1\n      pop\n      jump\t// out\n        /* \"#utility.yul\":5774:5882   */\n    tag_66:\n        /* \"#utility.yul\":5851:5875   */\n      tag_151\n        /* \"#utility.yul\":5869:5874   */\n      dup2\n        /* \"#utility.yul\":5851:5875   */\n      tag_51\n      jump\t// in\n    tag_151:\n        /* \"#utility.yul\":5846:5849   */\n      dup3\n        /* \"#utility.yul\":5839:5876   */\n      mstore\n        /* \"#utility.yul\":5774:5882   */\n      pop\n      pop\n      jump\t// out\n        /* \"#utility.yul\":5888:6067   */\n    tag_67:\n        /* \"#utility.yul\":5957:5967   */\n      0x00\n        /* \"#utility.yul\":5978:6024   */\n      tag_153\n        /* \"#utility.yul\":6020:6023   */\n      dup4\n        /* \"#utility.yul\":6012:6018   */\n      dup4\n        /* \"#utility.yul\":5978:6024   */\n      tag_66\n      jump\t// in\n    tag_153:\n        /* \"#utility.yul\":6056:6060   */\n      0x20\n        /* \"#utility.yul\":6051:6054   */\n      dup4\n        /* \"#utility.yul\":6047:6061   */\n      add\n        /* \"#utility.yul\":6033:6061   */\n      swap1\n      pop\n        /* \"#utility.yul\":5888:6067   */\n      swap3\n      swap2\n      pop\n      pop\n      jump\t// out\n        /* \"#utility.yul\":6073:6186   */\n    tag_68:\n        /* \"#utility.yul\":6143:6147   */\n      0x00\n        /* \"#utility.yul\":6175:6179   */\n      0x20\n        /* \"#utility.yul\":6170:6173   */\n      dup3\n        /* \"#utility.yul\":6166:6180   */\n      add\n        /* \"#utility.yul\":6158:6180   */\n      swap1\n      pop\n        /* \"#utility.yul\":6073:6186   */\n      swap2\n      swap1\n      pop\n      jump\t// out\n        /* \"#utility.yul\":6222:6954   */\n    tag_69:\n        /* \"#utility.yul\":6341:6344   */\n      0x00\n        /* \"#utility.yul\":6370:6424   */\n      tag_156\n        /* \"#utility.yul\":6418:6423   */\n      dup3\n        /* \"#utility.yul\":6370:6424   */\n      tag_63\n      jump\t// in\n    tag_156:\n        /* \"#utility.yul\":6440:6526   */\n      tag_157\n        /* \"#utility.yul\":6519:6525   */\n      dup2\n        /* \"#utility.yul\":6514:6517   */\n      dup6\n        /* \"#utility.yul\":6440:6526   */\n      tag_64\n      jump\t// in\n    tag_157:\n        /* \"#utility.yul\":6433:6526   */\n      swap4\n      pop\n        /* \"#utility.yul\":6550:6606   */\n      tag_158\n        /* \"#utility.yul\":6600:6605   */\n      dup4\n        /* \"#utility.yul\":6550:6606   */\n      tag_65\n      jump\t// in\n    tag_158:\n        /* \"#utility.yul\":6629:6636   */\n      dup1\n        /* \"#utility.yul\":6660:6661   */\n      0x00\n        /* \"#utility.yul\":6645:6929   */\n    tag_159:\n        /* \"#utility.yul\":6670:6676   */\n      dup4\n        /* \"#utility.yul\":6667:6668   */\n      dup2\n        /* \"#utility.yul\":6664:6677   */\n      lt\n        /* \"#utility.yul\":6645:6929   */\n      iszero\n      tag_161\n      jumpi\n        /* \"#utility.yul\":6746:6752   */\n      dup2\n        /* \"#utility.yul\":6740:6753   */\n      mload\n        /* \"#utility.yul\":6773:6836   */\n      tag_162\n        /* \"#utility.yul\":6832:6835   */\n      dup9\n        /* \"#utility.yul\":6817:6830   */\n      dup3\n        /* \"#utility.yul\":6773:6836   */\n      tag_67\n      jump\t// in\n    tag_162:\n        /* \"#utility.yul\":6766:6836   */\n      swap8\n      pop\n        /* \"#utility.yul\":6859:6919   */\n      tag_163\n        /* \"#utility.yul\":6912:6918   */\n      dup4\n        /* \"#utility.yul\":6859:6919   */\n      tag_68\n      jump\t// in\n    tag_163:\n        /* \"#utility.yul\":6849:6919   */\n      swap3\n      pop\n        /* \"#utility.yul\":6705:6929   */\n      pop\n        /* \"#utility.yul\":6692:6693   */\n      0x01\n        /* \"#utility.yul\":6689:6690   */\n      dup2\n        /* \"#utility.yul\":6685:6694   */\n      add\n        /* \"#utility.yul\":6680:6694   */\n      swap1\n      pop\n        /* \"#utility.yul\":6645:6929   */\n      jump(tag_159)\n    tag_161:\n        /* \"#utility.yul\":6649:6663   */\n      pop\n        /* \"#utility.yul\":6945:6948   */\n      dup6\n        /* \"#utility.yul\":6938:6948   */\n      swap4\n      pop\n        /* \"#utility.yul\":6346:6954   */\n      pop\n      pop\n      pop\n        /* \"#utility.yul\":6222:6954   */\n      swap3\n      swap2\n      pop\n      pop\n      jump\t// out\n        /* \"#utility.yul\":6960:7333   */\n    tag_16:\n        /* \"#utility.yul\":7103:7107   */\n      0x00\n        /* \"#utility.yul\":7141:7143   */\n      0x20\n        /* \"#utility.yul\":7130:7139   */\n      dup3\n        /* \"#utility.yul\":7126:7144   */\n      add\n        /* \"#utility.yul\":7118:7144   */\n      swap1\n      pop\n        /* \"#utility.yul\":7190:7199   */\n      dup2\n        /* \"#utility.yul\":7184:7188   */\n      dup2\n        /* \"#utility.yul\":7180:7200   */\n      sub\n        /* \"#utility.yul\":7176:7177   */\n      0x00\n        /* \"#utility.yul\":7165:7174   */\n      dup4\n        /* \"#utility.yul\":7161:7178   */\n      add\n        /* \"#utility.yul\":7154:7201   */\n      mstore\n        /* \"#utility.yul\":7218:7326   */\n      tag_165\n        /* \"#utility.yul\":7321:7325   */\n      dup2\n        /* \"#utility.yul\":7312:7318   */\n      dup5\n        /* \"#utility.yul\":7218:7326   */\n      tag_69\n      jump\t// in\n    tag_165:\n        /* \"#utility.yul\":7210:7326   */\n      swap1\n      pop\n        /* \"#utility.yul\":6960:7333   */\n      swap3\n      swap2\n      pop\n      pop\n      jump\t// out\n        /* \"#utility.yul\":7339:7519   */\n    tag_70:\n        /* \"#utility.yul\":7387:7464   */\n      0x4e487b7100000000000000000000000000000000000000000000000000000000\n        /* \"#utility.yul\":7384:7385   */\n      0x00\n        /* \"#utility.yul\":7377:7465   */\n      mstore\n        /* \"#utility.yul\":7484:7488   */\n      0x22\n        /* \"#utility.yul\":7481:7482   */\n      0x04\n        /* \"#utility.yul\":7474:7489   */\n      mstore\n        /* \"#utility.yul\":7508:7512   */\n      0x24\n        /* \"#utility.yul\":7505:7506   */\n      0x00\n        /* \"#utility.yul\":7498:7513   */\n      revert\n        /* \"#utility.yul\":7525:7845   */\n    tag_18:\n        /* \"#utility.yul\":7569:7575   */\n      0x00\n        /* \"#utility.yul\":7606:7607   */\n      0x02\n        /* \"#utility.yul\":7600:7604   */\n      dup3\n        /* \"#utility.yul\":7596:7608   */\n      div\n        /* \"#utility.yul\":7586:7608   */\n      swap1\n      pop\n        /* \"#utility.yul\":7653:7654   */\n      0x01\n        /* \"#utility.yul\":7647:7651   */\n      dup3\n        /* \"#utility.yul\":7643:7655   */\n      and\n        /* \"#utility.yul\":7674:7692   */\n      dup1\n        /* \"#utility.yul\":7664:7745   */\n      tag_168\n      jumpi\n        /* \"#utility.yul\":7730:7734   */\n      0x7f\n        /* \"#utility.yul\":7722:7728   */\n      dup3\n        /* \"#utility.yul\":7718:7735   */\n      and\n        /* \"#utility.yul\":7708:7735   */\n      swap2\n      pop\n        /* \"#utility.yul\":7664:7745   */\n    tag_168:\n        /* \"#utility.yul\":7792:7794   */\n      0x20\n        /* \"#utility.yul\":7784:7790   */\n      dup3\n        /* \"#utility.yul\":7781:7795   */\n      lt\n        /* \"#utility.yul\":7761:7779   */\n      dup2\n        /* \"#utility.yul\":7758:7796   */\n      sub\n        /* \"#utility.yul\":7755:7839   */\n      tag_169\n      jumpi\n        /* \"#utility.yul\":7811:7829   */\n      tag_170\n      tag_70\n      jump\t// in\n    tag_170:\n        /* \"#utility.yul\":7755:7839   */\n    tag_169:\n        /* \"#utility.yul\":7576:7845   */\n      pop\n        /* \"#utility.yul\":7525:7845   */\n      swap2\n      swap1\n      pop\n      jump\t// out\n        /* \"#utility.yul\":7851:8031   */\n    tag_36:\n        /* \"#utility.yul\":7899:7976   */\n      0x4e487b7100000000000000000000000000000000000000000000000000000000\n        /* \"#utility.yul\":7896:7897   */\n      0x00\n        /* \"#utility.yul\":7889:7977   */\n      mstore\n        /* \"#utility.yul\":7996:8000   */\n      0x41\n        /* \"#utility.yul\":7993:7994   */\n      0x04\n        /* \"#utility.yul\":7986:8001   */\n      mstore\n        /* \"#utility.yul\":8020:8024   */\n      0x24\n        /* \"#utility.yul\":8017:8018   */\n      0x00\n        /* \"#utility.yul\":8010:8025   */\n      revert\n        /* \"#utility.yul\":8037:8178   */\n    tag_71:\n        /* \"#utility.yul\":8086:8090   */\n      0x00\n        /* \"#utility.yul\":8109:8112   */\n      dup2\n        /* \"#utility.yul\":8101:8112   */\n      swap1\n      pop\n        /* \"#utility.yul\":8132:8135   */\n      dup2\n        /* \"#utility.yul\":8129:8130   */\n      0x00\n        /* \"#utility.yul\":8122:8136   */\n      mstore\n        /* \"#utility.yul\":8166:8170   */\n      0x20\n        /* \"#utility.yul\":8163:8164   */\n      0x00\n        /* \"#utility.yul\":8153:8171   */\n      keccak256\n        /* \"#utility.yul\":8145:8171   */\n      swap1\n      pop\n        /* \"#utility.yul\":8037:8178   */\n      swap2\n      swap1\n      pop\n      jump\t// out\n        /* \"#utility.yul\":8184:8277   */\n    tag_72:\n        /* \"#utility.yul\":8221:8227   */\n      0x00\n        /* \"#utility.yul\":8268:8270   */\n      0x20\n        /* \"#utility.yul\":8263:8265   */\n      0x1f\n        /* \"#utility.yul\":8256:8261   */\n      dup4\n        /* \"#utility.yul\":8252:8266   */\n      add\n        /* \"#utility.yul\":8248:8271   */\n      div\n        /* \"#utility.yul\":8238:8271   */\n      swap1\n      pop\n        /* \"#utility.yul\":8184:8277   */\n      swap2\n      swap1\n      pop\n      jump\t// out\n        /* \"#utility.yul\":8283:8390   */\n    tag_73:\n        /* \"#utility.yul\":8327:8335   */\n      0x00\n        /* \"#utility.yul\":8377:8382   */\n      dup3\n        /* \"#utility.yul\":8371:8375   */\n      dup3\n        /* \"#utility.yul\":8367:8383   */\n      shl\n        /* \"#utility.yul\":8346:8383   */\n      swap1\n      pop\n        /* \"#utility.yul\":8283:8390   */\n      swap3\n      swap2\n      pop\n      pop\n      jump\t// out\n        /* \"#utility.yul\":8396:8789   */\n    tag_74:\n        /* \"#utility.yul\":8465:8471   */\n      0x00\n        /* \"#utility.yul\":8515:8516   */\n      0x08\n        /* \"#utility.yul\":8503:8513   */\n      dup4\n        /* \"#utility.yul\":8499:8517   */\n      mul\n        /* \"#utility.yul\":8538:8635   */\n      tag_176\n        /* \"#utility.yul\":8568:8634   */\n      0xffffffffffffffffffffffffffffffffffffffffffffffffffffffffffffffff\n        /* \"#utility.yul\":8557:8566   */\n      dup3\n        /* \"#utility.yul\":8538:8635   */\n      tag_73\n      jump\t// in\n    tag_176:\n        /* \"#utility.yul\":8656:8695   */\n      tag_177\n        /* \"#utility.yul\":8686:8694   */\n      dup7\n        /* \"#utility.yul\":8675:8684   */\n      dup4\n        /* \"#utility.yul\":8656:8695   */\n      tag_73\n      jump\t// in\n    tag_177:\n        /* \"#utility.yul\":8644:8695   */\n      swap6\n      pop\n        /* \"#utility.yul\":8728:8732   */\n      dup1\n        /* \"#utility.yul\":8724:8733   */\n      not\n        /* \"#utility.yul\":8717:8722   */\n      dup5\n        /* \"#utility.yul\":8713:8734   */\n      and\n        /* \"#utility.yul\":8704:8734   */\n      swap4\n      pop\n        /* \"#utility.yul\":8777:8781   */\n      dup1\n        /* \"#utility.yul\":8767:8775   */\n      dup7\n        /* \"#utility.yul\":8763:8782   */\n      and\n        /* \"#utility.yul\":8756:8761   */\n      dup5\n        /* \"#utility.yul\":8753:8783   */\n      or\n        /* \"#utility.yul\":8743:8783   */\n      swap3\n      pop\n        /* \"#utility.yul\":8472:8789   */\n      pop\n      pop\n        /* \"#utility.yul\":8396:8789   */\n      swap4\n      swap3\n      pop\n      pop\n      pop\n      jump\t// out\n        /* \"#utility.yul\":8795:8855   */\n    tag_75:\n        /* \"#utility.yul\":8823:8826   */\n      0x00\n        /* \"#utility.yul\":8844:8849   */\n      dup2\n        /* \"#utility.yul\":8837:8849   */\n      swap1\n      pop\n        /* \"#utility.yul\":8795:8855   */\n      swap2\n      swap1\n      pop\n      jump\t// out\n        /* \"#utility.yul\":8861:9003   */\n    tag_76:\n        /* \"#utility.yul\":8911:8920   */\n      0x00\n        /* \"#utility.yul\":8944:8997   */\n      tag_180\n        /* \"#utility.yul\":8962:8996   */\n      tag_181\n        /* \"#utility.yul\":8971:8995   */\n      tag_182\n        /* \"#utility.yul\":8989:8994   */\n      dup5\n        /* \"#utility.yul\":8971:8995   */\n      tag_51\n      jump\t// in\n    tag_182:\n        /* \"#utility.yul\":8962:8996   */\n      tag_75\n      jump\t// in\n    tag_181:\n        /* \"#utility.yul\":8944:8997   */\n      tag_51\n      jump\t// in\n    tag_180:\n        /* \"#utility.yul\":8931:8997   */\n      swap1\n      pop\n        /* \"#utility.yul\":8861:9003   */\n      swap2\n      swap1\n      pop\n      jump\t// out\n        /* \"#utility.yul\":9009:9084   */\n    tag_77:\n        /* \"#utility.yul\":9052:9055   */\n      0x00\n        /* \"#utility.yul\":9073:9078   */\n      dup2\n        /* \"#utility.yul\":9066:9078   */\n      swap1\n      pop\n        /* \"#utility.yul\":9009:9084   */\n      swap2\n      swap1\n      pop\n      jump\t// out\n        /* \"#utility.yul\":9090:9359   */\n    tag_78:\n        /* \"#utility.yul\":9200:9239   */\n      tag_185\n        /* \"#utility.yul\":9231:9238   */\n      dup4\n        /* \"#utility.yul\":9200:9239   */\n      tag_76\n      jump\t// in\n    tag_185:\n        /* \"#utility.yul\":9261:9352   */\n      tag_186\n        /* \"#utility.yul\":9310:9351   */\n      tag_187\n        /* \"#utility.yul\":9334:9350   */\n      dup3\n        /* \"#utility.yul\":9310:9351   */\n      tag_77\n      jump\t// in\n    tag_187:\n        /* \"#utility.yul\":9302:9308   */\n      dup5\n        /* \"#utility.yul\":9295:9299   */\n      dup5\n        /* \"#utility.yul\":9289:9300   */\n      sload\n        /* \"#utility.yul\":9261:9352   */\n      tag_74\n      jump\t// in\n    tag_186:\n        /* \"#utility.yul\":9255:9259   */\n      dup3\n        /* \"#utility.yul\":9248:9353   */\n      sstore\n        /* \"#utility.yul\":9166:9359   */\n      pop\n        /* \"#utility.yul\":9090:9359   */\n      pop\n      pop\n      pop\n      jump\t// out\n        /* \"#utility.yul\":9365:9438   */\n    tag_79:\n        /* \"#utility.yul\":9410:9413   */\n      0x00\n        /* \"#utility.yul\":9365:9438   */\n      swap1\n      jump\t// out\n        /* \"#utility.yul\":9444:9633   */\n    tag_80:\n        /* \"#utility.yul\":9521:9553   */\n      tag_190\n      tag_79\n      jump\t// in\n    tag_190:\n        /* \"#utility.yul\":9562:9627   */\n      tag_191\n        /* \"#utility.yul\":9620:9626   */\n      dup2\n        /* \"#utility.yul\":9612:9618   */\n      dup5\n        /* \"#utility.yul\":9606:9610   */\n      dup5\n        /* \"#utility.yul\":9562:9627   */\n      tag_78\n      jump\t// in\n    tag_191:\n        /* \"#utility.yul\":9497:9633   */\n      pop\n        /* \"#utility.yul\":9444:9633   */\n      pop\n      pop\n      jump\t// out\n        /* \"#utility.yul\":9639:9825   */\n    tag_81:\n        /* \"#utility.yul\":9699:9819   */\n    tag_193:\n        /* \"#utility.yul\":9716:9719   */\n      dup2\n        /* \"#utility.yul\":9709:9714   */\n      dup2\n        /* \"#utility.yul\":9706:9720   */\n      lt\n        /* \"#utility.yul\":9699:9819   */\n      iszero\n      tag_195\n      jumpi\n        /* \"#utility.yul\":9770:9809   */\n      tag_196\n        /* \"#utility.yul\":9807:9808   */\n      0x00\n        /* \"#utility.yul\":9800:9805   */\n      dup3\n        /* \"#utility.yul\":9770:9809   */\n      tag_80\n      jump\t// in\n    tag_196:\n        /* \"#utility.yul\":9743:9744   */\n      0x01\n        /* \"#utility.yul\":9736:9741   */\n      dup2\n        /* \"#utility.yul\":9732:9745   */\n      add\n        /* \"#utility.yul\":9723:9745   */\n      swap1\n      pop\n        /* \"#utility.yul\":9699:9819   */\n      jump(tag_193)\n    tag_195:\n        /* \"#utility.yul\":9639:9825   */\n      pop\n      pop\n      jump\t// out\n        /* \"#utility.yul\":9831:10374   */\n    tag_82:\n        /* \"#utility.yul\":9932:9934   */\n      0x1f\n        /* \"#utility.yul\":9927:9930   */\n      dup3\n        /* \"#utility.yul\":9924:9935   */\n      gt\n        /* \"#utility.yul\":9921:10367   */\n      iszero\n      tag_198\n      jumpi\n        /* \"#utility.yul\":9966:10004   */\n      tag_199\n        /* \"#utility.yul\":9998:10003   */\n      dup2\n        /* \"#utility.yul\":9966:10004   */\n      tag_71\n      jump\t// in\n    tag_199:\n        /* \"#utility.yul\":10050:10079   */\n      tag_200\n        /* \"#utility.yul\":10068:10078   */\n      dup5\n        /* \"#utility.yul\":10050:10079   */\n      tag_72\n      jump\t// in\n    tag_200:\n        /* \"#utility.yul\":10040:10048   */\n      dup2\n        /* \"#utility.yul\":10036:10080   */\n      add\n        /* \"#utility.yul\":10233:10235   */\n      0x20\n        /* \"#utility.yul\":10221:10231   */\n      dup6\n        /* \"#utility.yul\":10218:10236   */\n      lt\n        /* \"#utility.yul\":10215:10264   */\n      iszero\n      tag_201\n      jumpi\n        /* \"#utility.yul\":10254:10262   */\n      dup2\n        /* \"#utility.yul\":10239:10262   */\n      swap1\n      pop\n        /* \"#utility.yul\":10215:10264   */\n    tag_201:\n        /* \"#utility.yul\":10277:10357   */\n      tag_202\n        /* \"#utility.yul\":10333:10355   */\n      tag_203\n        /* \"#utility.yul\":10351:10354   */\n      dup6\n        /* \"#utility.yul\":10333:10355   */\n      tag_72\n      jump\t// in\n    tag_203:\n        /* \"#utility.yul\":10323:10331   */\n      dup4\n        /* \"#utility.yul\":10319:10356   */\n      add\n        /* \"#utility.yul\":10306:10317   */\n      dup3\n        /* \"#utility.yul\":10277:10357   */\n      tag_81\n      jump\t// in\n    tag_202:\n        /* \"#utility.yul\":9936:10367   */\n      pop\n      pop\n        /* \"#utility.yul\":9921:10367   */\n    tag_198:\n        /* \"#utility.yul\":9831:10374   */\n      pop\n      pop\n      pop\n      jump\t// out\n        /* \"#utility.yul\":10380:10497   */\n    tag_83:\n        /* \"#utility.yul\":10434:10442   */\n      0x00\n        /* \"#utility.yul\":10484:10489   */\n      dup3\n        /* \"#utility.yul\":10478:10482   */\n      dup3\n        /* \"#utility.yul\":10474:10490   */\n      shr\n        /* \"#utility.yul\":10453:10490   */\n      swap1\n      pop\n        /* \"#utility.yul\":10380:10497   */\n      swap3\n      swap2\n      pop\n      pop\n      jump\t// out\n        /* \"#utility.yul\":10503:10672   */\n    tag_84:\n        /* \"#utility.yul\":10547:10553   */\n      0x00\n        /* \"#utility.yul\":10580:10631   */\n      tag_206\n        /* \"#utility.yul\":10628:10629   */\n      0x00\n        /* \"#utility.yul\":10624:10630   */\n      not\n        /* \"#utility.yul\":10616:10621   */\n      dup5\n        /* \"#utility.yul\":10613:10614   */\n      0x08\n        /* \"#utility.yul\":10609:10622   */\n      mul\n        /* \"#utility.yul\":10580:10631   */\n      tag_83\n      jump\t// in\n    tag_206:\n        /* \"#utility.yul\":10576:10632   */\n      not\n        /* \"#utility.yul\":10661:10665   */\n      dup1\n        /* \"#utility.yul\":10655:10659   */\n      dup4\n        /* \"#utility.yul\":10651:10666   */\n      and\n        /* \"#utility.yul\":10641:10666   */\n      swap2\n      pop\n        /* \"#utility.yul\":10554:10672   */\n      pop\n        /* \"#utility.yul\":10503:10672   */\n      swap3\n      swap2\n      pop\n      pop\n      jump\t// out\n        /* \"#utility.yul\":10677:10972   */\n    tag_85:\n        /* \"#utility.yul\":10753:10757   */\n      0x00\n        /* \"#utility.yul\":10899:10928   */\n      tag_208\n        /* \"#utility.yul\":10924:10927   */\n      dup4\n        /* \"#utility.yul\":10918:10922   */\n      dup4\n        /* \"#utility.yul\":10899:10928   */\n      tag_84\n      jump\t// in\n    tag_208:\n        /* \"#utility.yul\":10891:10928   */\n      swap2\n      pop\n        /* \"#utility.yul\":10961:10964   */\n      dup3\n        /* \"#utility.yul\":10958:10959   */\n      0x02\n        /* \"#utility.yul\":10954:10965   */\n      mul\n        /* \"#utility.yul\":10948:10952   */\n      dup3\n        /* \"#utility.yul\":10945:10966   */\n      or\n        /* \"#utility.yul\":10937:10966   */\n      swap1\n      pop\n        /* \"#utility.yul\":10677:10972   */\n      swap3\n      swap2\n      pop\n      pop\n      jump\t// out\n        /* \"#utility.yul\":10977:12372   */\n    tag_25:\n        /* \"#utility.yul\":11094:11131   */\n      tag_210\n        /* \"#utility.yul\":11127:11130   */\n      dup3\n        /* \"#utility.yul\":11094:11131   */\n      tag_53\n      jump\t// in\n    tag_210:\n        /* \"#utility.yul\":11196:11214   */\n      0xffffffffffffffff\n        /* \"#utility.yul\":11188:11194   */\n      dup2\n        /* \"#utility.yul\":11185:11215   */\n      gt\n        /* \"#utility.yul\":11182:11238   */\n      iszero\n      tag_211\n      jumpi\n        /* \"#utility.yul\":11218:11236   */\n      tag_212\n      tag_36\n      jump\t// in\n    tag_212:\n        /* \"#utility.yul\":11182:11238   */\n    tag_211:\n        /* \"#utility.yul\":11262:11300   */\n      tag_213\n        /* \"#utility.yul\":11294:11298   */\n      dup3\n        /* \"#utility.yul\":11288:11299   */\n      sload\n        /* \"#utility.yul\":11262:11300   */\n      tag_18\n      jump\t// in\n    tag_213:\n        /* \"#utility.yul\":11347:11414   */\n      tag_214\n        /* \"#utility.yul\":11407:11413   */\n      dup3\n        /* \"#utility.yul\":11399:11405   */\n      dup3\n        /* \"#utility.yul\":11393:11397   */\n      dup6\n        /* \"#utility.yul\":11347:11414   */\n      tag_82\n      jump\t// in\n    tag_214:\n        /* \"#utility.yul\":11441:11442   */\n      0x00\n        /* \"#utility.yul\":11465:11469   */\n      0x20\n        /* \"#utility.yul\":11452:11469   */\n      swap1\n      pop\n        /* \"#utility.yul\":11497:11499   */\n      0x1f\n        /* \"#utility.yul\":11489:11495   */\n      dup4\n        /* \"#utility.yul\":11486:11500   */\n      gt\n        /* \"#utility.yul\":11514:11515   */\n      0x01\n        /* \"#utility.yul\":11509:12127   */\n      dup2\n      eq\n      tag_216\n      jumpi\n        /* \"#utility.yul\":12171:12172   */\n      0x00\n        /* \"#utility.yul\":12188:12194   */\n      dup5\n        /* \"#utility.yul\":12185:12262   */\n      iszero\n      tag_217\n      jumpi\n        /* \"#utility.yul\":12237:12246   */\n      dup3\n        /* \"#utility.yul\":12232:12235   */\n      dup8\n        /* \"#utility.yul\":12228:12247   */\n      add\n        /* \"#utility.yul\":12222:12248   */\n      mload\n        /* \"#utility.yul\":12213:12248   */\n      swap1\n      pop\n        /* \"#utility.yul\":12185:12262   */\n    tag_217:\n        /* \"#utility.yul\":12288:12355   */\n      tag_218\n        /* \"#utility.yul\":12348:12354   */\n      dup6\n        /* \"#utility.yul\":12341:12346   */\n      dup3\n        /* \"#utility.yul\":12288:12355   */\n      tag_85\n      jump\t// in\n    tag_218:\n        /* \"#utility.yul\":12282:12286   */\n      dup7\n        /* \"#utility.yul\":12275:12356   */\n      sstore\n        /* \"#utility.yul\":12144:12366   */\n      pop\n        /* \"#utility.yul\":11479:12366   */\n      jump(tag_215)\n        /* \"#utility.yul\":11509:12127   */\n    tag_216:\n        /* \"#utility.yul\":11561:11565   */\n      0x1f\n        /* \"#utility.yul\":11557:11566   */\n      not\n        /* \"#utility.yul\":11549:11555   */\n      dup5\n        /* \"#utility.yul\":11545:11567   */\n      and\n        /* \"#utility.yul\":11595:11632   */\n      tag_219\n        /* \"#utility.yul\":11627:11631   */\n      dup7\n        /* \"#utility.yul\":11595:11632   */\n      tag_71\n      jump\t// in\n    tag_219:\n        /* \"#utility.yul\":11654:11655   */\n      0x00\n        /* \"#utility.yul\":11668:11876   */\n    tag_220:\n        /* \"#utility.yul\":11682:11689   */\n      dup3\n        /* \"#utility.yul\":11679:11680   */\n      dup2\n        /* \"#utility.yul\":11676:11690   */\n      lt\n        /* \"#utility.yul\":11668:11876   */\n      iszero\n      tag_222\n      jumpi\n        /* \"#utility.yul\":11761:11770   */\n      dup5\n        /* \"#utility.yul\":11756:11759   */\n      dup10\n        /* \"#utility.yul\":11752:11771   */\n      add\n        /* \"#utility.yul\":11746:11772   */\n      mload\n        /* \"#utility.yul\":11738:11744   */\n      dup3\n        /* \"#utility.yul\":11731:11773   */\n      sstore\n        /* \"#utility.yul\":11812:11813   */\n      0x01\n        /* \"#utility.yul\":11804:11810   */\n      dup3\n        /* \"#utility.yul\":11800:11814   */\n      add\n        /* \"#utility.yul\":11790:11814   */\n      swap2\n      pop\n        /* \"#utility.yul\":11859:11861   */\n      0x20\n        /* \"#utility.yul\":11848:11857   */\n      dup6\n        /* \"#utility.yul\":11844:11862   */\n      add\n        /* \"#utility.yul\":11831:11862   */\n      swap5\n      pop\n        /* \"#utility.yul\":11705:11709   */\n      0x20\n        /* \"#utility.yul\":11702:11703   */\n      dup2\n        /* \"#utility.yul\":11698:11710   */\n      add\n        /* \"#utility.yul\":11693:11710   */\n      swap1\n      pop\n        /* \"#utility.yul\":11668:11876   */\n      jump(tag_220)\n    tag_222:\n        /* \"#utility.yul\":11904:11910   */\n      dup7\n        /* \"#utility.yul\":11895:11902   */\n      dup4\n        /* \"#utility.yul\":11892:11911   */\n      lt\n        /* \"#utility.yul\":11889:12068   */\n      iszero\n      tag_223\n      jumpi\n        /* \"#utility.yul\":11962:11971   */\n      dup5\n        /* \"#utility.yul\":11957:11960   */\n      dup10\n        /* \"#utility.yul\":11953:11972   */\n      add\n        /* \"#utility.yul\":11947:11973   */\n      mload\n        /* \"#utility.yul\":12005:12053   */\n      tag_224\n        /* \"#utility.yul\":12047:12051   */\n      0x1f\n        /* \"#utility.yul\":12039:12045   */\n      dup10\n        /* \"#utility.yul\":12035:12052   */\n      and\n        /* \"#utility.yul\":12024:12033   */\n      dup3\n        /* \"#utility.yul\":12005:12053   */\n      tag_84\n      jump\t// in\n    tag_224:\n        /* \"#utility.yul\":11997:12003   */\n      dup4\n        /* \"#utility.yul\":11990:12054   */\n      sstore\n        /* \"#utility.yul\":11912:12068   */\n      pop\n        /* \"#utility.yul\":11889:12068   */\n    tag_223:\n        /* \"#utility.yul\":12114:12115   */\n      0x01\n        /* \"#utility.yul\":12110:12111   */\n      0x02\n        /* \"#utility.yul\":12102:12108   */\n      dup9\n        /* \"#utility.yul\":12098:12112   */\n      mul\n        /* \"#utility.yul\":12094:12116   */\n      add\n        /* \"#utility.yul\":12088:12092   */\n      dup9\n        /* \"#utility.yul\":12081:12117   */\n      sstore\n        /* \"#utility.yul\":11516:12127   */\n      pop\n      pop\n      pop\n        /* \"#utility.yul\":11479:12366   */\n    tag_215:\n      pop\n        /* \"#utility.yul\":11069:12372   */\n      pop\n      pop\n      pop\n        /* \"#utility.yul\":10977:12372   */\n      pop\n      pop\n      jump\t// out\n        /* \"#utility.yul\":12378:12558   */\n    tag_40:\n        /* \"#utility.yul\":12426:12503   */\n      0x4e487b7100000000000000000000000000000000000000000000000000000000\n        /* \"#utility.yul\":12423:12424   */\n      0x00\n        /* \"#utility.yul\":12416:12504   */\n      mstore\n        /* \"#utility.yul\":12523:12527   */\n      0x32\n        /* \"#utility.yul\":12520:12521   */\n      0x04\n        /* \"#utility.yul\":12513:12528   */\n      mstore\n        /* \"#utility.yul\":12547:12551   */\n      0x24\n        /* \"#utility.yul\":12544:12545   */\n      0x00\n        /* \"#utility.yul\":12537:12552   */\n      revert\n\n    auxdata: 0xa264697066735822122012c30a49159d59701d9f831bcf343b732a0d8a2487cea20328a4eca6c303665064736f6c634300080f0033\n}\n",
				"bytecode": {
					"linkReferences": {},
					"object": "608060405234801561001057600080fd5b50610b65806100206000396000f3fe608060405234801561001057600080fd5b50600436106100365760003560e01c8063b43c5d331461003b578063fc277a951461006c575b600080fd5b610055600480360381019061005091906104c8565b61009c565b6040516100639291906105a7565b60405180910390f35b61008660048036038101906100819190610692565b610148565b60405161009391906107d1565b60405180910390f35b60006020528060005260406000206000915090508060000154908060010180546100c590610822565b80601f01602080910402602001604051908101604052809291908181526020018280546100f190610822565b801561013e5780601f106101135761010080835404028352916020019161013e565b820191906000526020600020905b81548152906001019060200180831161012157829003601f168201915b5050505050905082565b60606040518060400160405280607b81526020016040518060400160405280600381526020017f62617200000000000000000000000000000000000000000000000000000000008152508152506000803373ffffffffffffffffffffffffffffffffffffffff1673ffffffffffffffffffffffffffffffffffffffff1681526020019081526020016000206000820151816000015560208201518160010190816101f29190610a2e565b5090505060008060003373ffffffffffffffffffffffffffffffffffffffff1673ffffffffffffffffffffffffffffffffffffffff16815260200190815260200160002090506040518060400160405280600381526020017f666f6f000000000000000000000000000000000000000000000000000000000081525081600101908161027e9190610a2e565b5060008060003373ffffffffffffffffffffffffffffffffffffffff1673ffffffffffffffffffffffffffffffffffffffff168152602001908152602001600020604051806040016040529081600082015481526020016001820180546102e490610822565b80601f016020809104026020016040519081016040528092919081815260200182805461031090610822565b801561035d5780601f106103325761010080835404028352916020019161035d565b820191906000526020600020905b81548152906001019060200180831161034057829003601f168201915b50505050508152505090506101c88160000181815250506103be878780806020026020016040519081016040528093929190818152602001838360200280828437600081840152601f19601f8201169050808301925050505050505061043c565b6000600367ffffffffffffffff8111156103db576103da610853565b5b6040519080825280602002602001820160405280156104095781602001602082028036833780820191505090505b50905060ea8160008151811061042257610421610b00565b5b602002602001018181525050809350505050949350505050565b60008160008151811061045257610451610b00565b5b602002602001015190505050565b600080fd5b600080fd5b600073ffffffffffffffffffffffffffffffffffffffff82169050919050565b60006104958261046a565b9050919050565b6104a58161048a565b81146104b057600080fd5b50565b6000813590506104c28161049c565b92915050565b6000602082840312156104de576104dd610460565b5b60006104ec848285016104b3565b91505092915050565b6000819050919050565b610508816104f5565b82525050565b600081519050919050565b600082825260208201905092915050565b60005b8381101561054857808201518184015260208101905061052d565b83811115610557576000848401525b50505050565b6000601f19601f8301169050919050565b60006105798261050e565b6105838185610519565b935061059381856020860161052a565b61059c8161055d565b840191505092915050565b60006040820190506105bc60008301856104ff565b81810360208301526105ce818461056e565b90509392505050565b600080fd5b600080fd5b600080fd5b60008083601f8401126105fc576105fb6105d7565b5b8235905067ffffffffffffffff811115610619576106186105dc565b5b602083019150836020820283011115610635576106346105e1565b5b9250929050565b60008083601f840112610652576106516105d7565b5b8235905067ffffffffffffffff81111561066f5761066e6105dc565b5b60208301915083600182028301111561068b5761068a6105e1565b5b9250929050565b600080600080604085870312156106ac576106ab610460565b5b600085013567ffffffffffffffff8111156106ca576106c9610465565b5b6106d6878288016105e6565b9450945050602085013567ffffffffffffffff8111156106f9576106f8610465565b5b6107058782880161063c565b925092505092959194509250565b600081519050919050565b600082825260208201905092915050565b6000819050602082019050919050565b610748816104f5565b82525050565b600061075a838361073f565b60208301905092915050565b6000602082019050919050565b600061077e82610713565b610788818561071e565b93506107938361072f565b8060005b838110156107c45781516107ab888261074e565b97506107b683610766565b925050600181019050610797565b5085935050505092915050565b600060208201905081810360008301526107eb8184610773565b905092915050565b7f4e487b7100000000000000000000000000000000000000000000000000000000600052602260045260246000fd5b6000600282049050600182168061083a57607f821691505b60208210810361084d5761084c6107f3565b5b50919050565b7f4e487b7100000000000000000000000000000000000000000000000000000000600052604160045260246000fd5b60008190508160005260206000209050919050565b60006020601f8301049050919050565b600082821b905092915050565b6000600883026108e47fffffffffffffffffffffffffffffffffffffffffffffffffffffffffffffffff826108a7565b6108ee86836108a7565b95508019841693508086168417925050509392505050565b6000819050919050565b600061092b610926610921846104f5565b610906565b6104f5565b9050919050565b6000819050919050565b61094583610910565b61095961095182610932565b8484546108b4565b825550505050565b600090565b61096e610961565b61097981848461093c565b505050565b5b8181101561099d57610992600082610966565b60018101905061097f565b5050565b601f8211156109e2576109b381610882565b6109bc84610897565b810160208510156109cb578190505b6109df6109d785610897565b83018261097e565b50505b505050565b600082821c905092915050565b6000610a05600019846008026109e7565b1980831691505092915050565b6000610a1e83836109f4565b9150826002028217905092915050565b610a378261050e565b67ffffffffffffffff811115610a5057610a4f610853565b5b610a5a8254610822565b610a658282856109a1565b600060209050601f831160018114610a985760008415610a86578287015190505b610a908582610a12565b865550610af8565b601f198416610aa686610882565b60005b82811015610ace57848901518255600182019150602085019450602081019050610aa9565b86831015610aeb5784890151610ae7601f8916826109f4565b8355505b6001600288020188555050505b505050505050565b7f4e487b7100000000000000000000000000000000000000000000000000000000600052603260045260246000fdfea264697066735822122012c30a49159d59701d9f831bcf343b732a0d8a2487cea20328a4eca6c303665064736f6c634300080f0033",
					"opcodes": "PUSH1 0x80 PUSH1 0x40 MSTORE CALLVALUE DUP1 ISZERO PUSH2 0x10 JUMPI PUSH1 0x0 DUP1 REVERT JUMPDEST POP PUSH2 0xB65 DUP1 PUSH2 0x20 PUSH1 0x0 CODECOPY PUSH1 0x0 RETURN INVALID PUSH1 0x80 PUSH1 0x40 MSTORE CALLVALUE DUP1 ISZERO PUSH2 0x10 JUMPI PUSH1 0x0 DUP1 REVERT JUMPDEST POP PUSH1 0x4 CALLDATASIZE LT PUSH2 0x36 JUMPI PUSH1 0x0 CALLDATALOAD PUSH1 0xE0 SHR DUP1 PUSH4 0xB43C5D33 EQ PUSH2 0x3B JUMPI DUP1 PUSH4 0xFC277A95 EQ PUSH2 0x6C JUMPI JUMPDEST PUSH1 0x0 DUP1 REVERT JUMPDEST PUSH2 0x55 PUSH1 0x4 DUP1 CALLDATASIZE SUB DUP2 ADD SWAP1 PUSH2 0x50 SWAP2 SWAP1 PUSH2 0x4C8 JUMP JUMPDEST PUSH2 0x9C JUMP JUMPDEST PUSH1 0x40 MLOAD PUSH2 0x63 SWAP3 SWAP2 SWAP1 PUSH2 0x5A7 JUMP JUMPDEST PUSH1 0x40 MLOAD DUP1 SWAP2 SUB SWAP1 RETURN JUMPDEST PUSH2 0x86 PUSH1 0x4 DUP1 CALLDATASIZE SUB DUP2 ADD SWAP1 PUSH2 0x81 SWAP2 SWAP1 PUSH2 0x692 JUMP JUMPDEST PUSH2 0x148 JUMP JUMPDEST PUSH1 0x40 MLOAD PUSH2 0x93 SWAP2 SWAP1 PUSH2 0x7D1 JUMP JUMPDEST PUSH1 0x40 MLOAD DUP1 SWAP2 SUB SWAP1 RETURN JUMPDEST PUSH1 0x0 PUSH1 0x20 MSTORE DUP1 PUSH1 0x0 MSTORE PUSH1 0x40 PUSH1 0x0 KECCAK256 PUSH1 0x0 SWAP2 POP SWAP1 POP DUP1 PUSH1 0x0 ADD SLOAD SWAP1 DUP1 PUSH1 0x1 ADD DUP1 SLOAD PUSH2 0xC5 SWAP1 PUSH2 0x822 JUMP JUMPDEST DUP1 PUSH1 0x1F ADD PUSH1 0x20 DUP1 SWAP2 DIV MUL PUSH1 0x20 ADD PUSH1 0x40 MLOAD SWAP1 DUP2 ADD PUSH1 0x40 MSTORE DUP1 SWAP3 SWAP2 SWAP1 DUP2 DUP2 MSTORE PUSH1 0x20 ADD DUP3 DUP1 SLOAD PUSH2 0xF1 SWAP1 PUSH2 0x822 JUMP JUMPDEST DUP1 ISZERO PUSH2 0x13E JUMPI DUP1 PUSH1 0x1F LT PUSH2 0x113 JUMPI PUSH2 0x100 DUP1 DUP4 SLOAD DIV MUL DUP4 MSTORE SWAP2 PUSH1 0x20 ADD SWAP2 PUSH2 0x13E JUMP JUMPDEST DUP3 ADD SWAP2 SWAP1 PUSH1 0x0 MSTORE PUSH1 0x20 PUSH1 0x0 KECCAK256 SWAP1 JUMPDEST DUP2 SLOAD DUP2 MSTORE SWAP1 PUSH1 0x1 ADD SWAP1 PUSH1 0x20 ADD DUP1 DUP4 GT PUSH2 0x121 JUMPI DUP3 SWAP1 SUB PUSH1 0x1F AND DUP3 ADD SWAP2 JUMPDEST POP POP POP POP POP SWAP1 POP DUP3 JUMP JUMPDEST PUSH1 0x60 PUSH1 0x40 MLOAD DUP1 PUSH1 0x40 ADD PUSH1 0x40 MSTORE DUP1 PUSH1 0x7B DUP2 MSTORE PUSH1 0x20 ADD PUSH1 0x40 MLOAD DUP1 PUSH1 0x40 ADD PUSH1 0x40 MSTORE DUP1 PUSH1 0x3 DUP2 MSTORE PUSH1 0x20 ADD PUSH32 0x6261720000000000000000000000000000000000000000000000000000000000 DUP2 MSTORE POP DUP2 MSTORE POP PUSH1 0x0 DUP1 CALLER PUSH20 0xFFFFFFFFFFFFFFFFFFFFFFFFFFFFFFFFFFFFFFFF AND PUSH20 0xFFFFFFFFFFFFFFFFFFFFFFFFFFFFFFFFFFFFFFFF AND DUP2 MSTORE PUSH1 0x20 ADD SWAP1 DUP2 MSTORE PUSH1 0x20 ADD PUSH1 0x0 KECCAK256 PUSH1 0x0 DUP3 ADD MLOAD DUP2 PUSH1 0x0 ADD SSTORE PUSH1 0x20 DUP3 ADD MLOAD DUP2 PUSH1 0x1 ADD SWAP1 DUP2 PUSH2 0x1F2 SWAP2 SWAP1 PUSH2 0xA2E JUMP JUMPDEST POP SWAP1 POP POP PUSH1 0x0 DUP1 PUSH1 0x0 CALLER PUSH20 0xFFFFFFFFFFFFFFFFFFFFFFFFFFFFFFFFFFFFFFFF AND PUSH20 0xFFFFFFFFFFFFFFFFFFFFFFFFFFFFFFFFFFFFFFFF AND DUP2 MSTORE PUSH1 0x20 ADD SWAP1 DUP2 MSTORE PUSH1 0x20 ADD PUSH1 0x0 KECCAK256 SWAP1 POP PUSH1 0x40 MLOAD DUP1 PUSH1 0x40 ADD PUSH1 0x40 MSTORE DUP1 PUSH1 0x3 DUP2 MSTORE PUSH1 0x20 ADD PUSH32 0x666F6F0000000000000000000000000000000000000000000000000000000000 DUP2 MSTORE POP DUP2 PUSH1 0x1 ADD SWAP1 DUP2 PUSH2 0x27E SWAP2 SWAP1 PUSH2 0xA2E JUMP JUMPDEST POP PUSH1 0x0 DUP1 PUSH1 0x0 CALLER PUSH20 0xFFFFFFFFFFFFFFFFFFFFFFFFFFFFFFFFFFFFFFFF AND PUSH20 0xFFFFFFFFFFFFFFFFFFFFFFFFFFFFFFFFFFFFFFFF AND DUP2 MSTORE PUSH1 0x20 ADD SWAP1 DUP2 MSTORE PUSH1 0x20 ADD PUSH1 0x0 KECCAK256 PUSH1 0x40 MLOAD DUP1 PUSH1 0x40 ADD PUSH1 0x40 MSTORE SWAP1 DUP2 PUSH1 0x0 DUP3 ADD SLOAD DUP2 MSTORE PUSH1 0x20 ADD PUSH1 0x1 DUP3 ADD DUP1 SLOAD PUSH2 0x2E4 SWAP1 PUSH2 0x822 JUMP JUMPDEST DUP1 PUSH1 0x1F ADD PUSH1 0x20 DUP1 SWAP2 DIV MUL PUSH1 0x20 ADD PUSH1 0x40 MLOAD SWAP1 DUP2 ADD PUSH1 0x40 MSTORE DUP1 SWAP3 SWAP2 SWAP1 DUP2 DUP2 MSTORE PUSH1 0x20 ADD DUP3 DUP1 SLOAD PUSH2 0x310 SWAP1 PUSH2 0x822 JUMP JUMPDEST DUP1 ISZERO PUSH2 0x35D JUMPI DUP1 PUSH1 0x1F LT PUSH2 0x332 JUMPI PUSH2 0x100 DUP1 DUP4 SLOAD DIV MUL DUP4 MSTORE SWAP2 PUSH1 0x20 ADD SWAP2 PUSH2 0x35D JUMP JUMPDEST DUP3 ADD SWAP2 SWAP1 PUSH1 0x0 MSTORE PUSH1 0x20 PUSH1 0x0 KECCAK256 SWAP1 JUMPDEST DUP2 SLOAD DUP2 MSTORE SWAP1 PUSH1 0x1 ADD SWAP1 PUSH1 0x20 ADD DUP1 DUP4 GT PUSH2 0x340 JUMPI DUP3 SWAP1 SUB PUSH1 0x1F AND DUP3 ADD SWAP2 JUMPDEST POP POP POP POP POP DUP2 MSTORE POP POP SWAP1 POP PUSH2 0x1C8 DUP2 PUSH1 0x0 ADD DUP2 DUP2 MSTORE POP POP PUSH2 0x3BE DUP8 DUP8 DUP1 DUP1 PUSH1 0x20 MUL PUSH1 0x20 ADD PUSH1 0x40 MLOAD SWAP1 DUP2 ADD PUSH1 0x40 MSTORE DUP1 SWAP4 SWAP3 SWAP2 SWAP1 DUP2 DUP2 MSTORE PUSH1 0x20 ADD DUP4 DUP4 PUSH1 0x20 MUL DUP1 DUP3 DUP5 CALLDATACOPY PUSH1 0x0 DUP2 DUP5 ADD MSTORE PUSH1 0x1F NOT PUSH1 0x1F DUP3 ADD AND SWAP1 POP DUP1 DUP4 ADD SWAP3 POP POP POP POP POP POP POP PUSH2 0x43C JUMP JUMPDEST PUSH1 0x0 PUSH1 0x3 PUSH8 0xFFFFFFFFFFFFFFFF DUP2 GT ISZERO PUSH2 0x3DB JUMPI PUSH2 0x3DA PUSH2 0x853 JUMP JUMPDEST JUMPDEST PUSH1 0x40 MLOAD SWAP1 DUP1 DUP3 MSTORE DUP1 PUSH1 0x20 MUL PUSH1 0x20 ADD DUP3 ADD PUSH1 0x40 MSTORE DUP1 ISZERO PUSH2 0x409 JUMPI DUP2 PUSH1 0x20 ADD PUSH1 0x20 DUP3 MUL DUP1 CALLDATASIZE DUP4 CALLDATACOPY DUP1 DUP3 ADD SWAP2 POP POP SWAP1 POP JUMPDEST POP SWAP1 POP PUSH1 0xEA DUP2 PUSH1 0x0 DUP2 MLOAD DUP2 LT PUSH2 0x422 JUMPI PUSH2 0x421 PUSH2 0xB00 JUMP JUMPDEST JUMPDEST PUSH1 0x20 MUL PUSH1 0x20 ADD ADD DUP2 DUP2 MSTORE POP POP DUP1 SWAP4 POP POP POP POP SWAP5 SWAP4 POP POP POP POP JUMP JUMPDEST PUSH1 0x0 DUP2 PUSH1 0x0 DUP2 MLOAD DUP2 LT PUSH2 0x452 JUMPI PUSH2 0x451 PUSH2 0xB00 JUMP JUMPDEST JUMPDEST PUSH1 0x20 MUL PUSH1 0x20 ADD ADD MLOAD SWAP1 POP POP POP JUMP JUMPDEST PUSH1 0x0 DUP1 REVERT JUMPDEST PUSH1 0x0 DUP1 REVERT JUMPDEST PUSH1 0x0 PUSH20 0xFFFFFFFFFFFFFFFFFFFFFFFFFFFFFFFFFFFFFFFF DUP3 AND SWAP1 POP SWAP2 SWAP1 POP JUMP JUMPDEST PUSH1 0x0 PUSH2 0x495 DUP3 PUSH2 0x46A JUMP JUMPDEST SWAP1 POP SWAP2 SWAP1 POP JUMP JUMPDEST PUSH2 0x4A5 DUP2 PUSH2 0x48A JUMP JUMPDEST DUP2 EQ PUSH2 0x4B0 JUMPI PUSH1 0x0 DUP1 REVERT JUMPDEST POP JUMP JUMPDEST PUSH1 0x0 DUP2 CALLDATALOAD SWAP1 POP PUSH2 0x4C2 DUP2 PUSH2 0x49C JUMP JUMPDEST SWAP3 SWAP2 POP POP JUMP JUMPDEST PUSH1 0x0 PUSH1 0x20 DUP3 DUP5 SUB SLT ISZERO PUSH2 0x4DE JUMPI PUSH2 0x4DD PUSH2 0x460 JUMP JUMPDEST JUMPDEST PUSH1 0x0 PUSH2 0x4EC DUP5 DUP3 DUP6 ADD PUSH2 0x4B3 JUMP JUMPDEST SWAP2 POP POP SWAP3 SWAP2 POP POP JUMP JUMPDEST PUSH1 0x0 DUP2 SWAP1 POP SWAP2 SWAP1 POP JUMP JUMPDEST PUSH2 0x508 DUP2 PUSH2 0x4F5 JUMP JUMPDEST DUP3 MSTORE POP POP JUMP JUMPDEST PUSH1 0x0 DUP2 MLOAD SWAP1 POP SWAP2 SWAP1 POP JUMP JUMPDEST PUSH1 0x0 DUP3 DUP3 MSTORE PUSH1 0x20 DUP3 ADD SWAP1 POP SWAP3 SWAP2 POP POP JUMP JUMPDEST PUSH1 0x0 JUMPDEST DUP4 DUP2 LT ISZERO PUSH2 0x548 JUMPI DUP1 DUP3 ADD MLOAD DUP2 DUP5 ADD MSTORE PUSH1 0x20 DUP2 ADD SWAP1 POP PUSH2 0x52D JUMP JUMPDEST DUP4 DUP2 GT ISZERO PUSH2 0x557 JUMPI PUSH1 0x0 DUP5 DUP5 ADD MSTORE JUMPDEST POP POP POP POP JUMP JUMPDEST PUSH1 0x0 PUSH1 0x1F NOT PUSH1 0x1F DUP4 ADD AND SWAP1 POP SWAP2 SWAP1 POP JUMP JUMPDEST PUSH1 0x0 PUSH2 0x579 DUP3 PUSH2 0x50E JUMP JUMPDEST PUSH2 0x583 DUP2 DUP6 PUSH2 0x519 JUMP JUMPDEST SWAP4 POP PUSH2 0x593 DUP2 DUP6 PUSH1 0x20 DUP7 ADD PUSH2 0x52A JUMP JUMPDEST PUSH2 0x59C DUP2 PUSH2 0x55D JUMP JUMPDEST DUP5 ADD SWAP2 POP POP SWAP3 SWAP2 POP POP JUMP JUMPDEST PUSH1 0x0 PUSH1 0x40 DUP3 ADD SWAP1 POP PUSH2 0x5BC PUSH1 0x0 DUP4 ADD DUP6 PUSH2 0x4FF JUMP JUMPDEST DUP2 DUP2 SUB PUSH1 0x20 DUP4 ADD MSTORE PUSH2 0x5CE DUP2 DUP5 PUSH2 0x56E JUMP JUMPDEST SWAP1 POP SWAP4 SWAP3 POP POP POP JUMP JUMPDEST PUSH1 0x0 DUP1 REVERT JUMPDEST PUSH1 0x0 DUP1 REVERT JUMPDEST PUSH1 0x0 DUP1 REVERT JUMPDEST PUSH1 0x0 DUP1 DUP4 PUSH1 0x1F DUP5 ADD SLT PUSH2 0x5FC JUMPI PUSH2 0x5FB PUSH2 0x5D7 JUMP JUMPDEST JUMPDEST DUP3 CALLDATALOAD SWAP1 POP PUSH8 0xFFFFFFFFFFFFFFFF DUP2 GT ISZERO PUSH2 0x619 JUMPI PUSH2 0x618 PUSH2 0x5DC JUMP JUMPDEST JUMPDEST PUSH1 0x20 DUP4 ADD SWAP2 POP DUP4 PUSH1 0x20 DUP3 MUL DUP4 ADD GT ISZERO PUSH2 0x635 JUMPI PUSH2 0x634 PUSH2 0x5E1 JUMP JUMPDEST JUMPDEST SWAP3 POP SWAP3 SWAP1 POP JUMP JUMPDEST PUSH1 0x0 DUP1 DUP4 PUSH1 0x1F DUP5 ADD SLT PUSH2 0x652 JUMPI PUSH2 0x651 PUSH2 0x5D7 JUMP JUMPDEST JUMPDEST DUP3 CALLDATALOAD SWAP1 POP PUSH8 0xFFFFFFFFFFFFFFFF DUP2 GT ISZERO PUSH2 0x66F JUMPI PUSH2 0x66E PUSH2 0x5DC JUMP JUMPDEST JUMPDEST PUSH1 0x20 DUP4 ADD SWAP2 POP DUP4 PUSH1 0x1 DUP3 MUL DUP4 ADD GT ISZERO PUSH2 0x68B JUMPI PUSH2 0x68A PUSH2 0x5E1 JUMP JUMPDEST JUMPDEST SWAP3 POP SWAP3 SWAP1 POP JUMP JUMPDEST PUSH1 0x0 DUP1 PUSH1 0x0 DUP1 PUSH1 0x40 DUP6 DUP8 SUB SLT ISZERO PUSH2 0x6AC JUMPI PUSH2 0x6AB PUSH2 0x460 JUMP JUMPDEST JUMPDEST PUSH1 0x0 DUP6 ADD CALLDATALOAD PUSH8 0xFFFFFFFFFFFFFFFF DUP2 GT ISZERO PUSH2 0x6CA JUMPI PUSH2 0x6C9 PUSH2 0x465 JUMP JUMPDEST JUMPDEST PUSH2 0x6D6 DUP8 DUP3 DUP9 ADD PUSH2 0x5E6 JUMP JUMPDEST SWAP5 POP SWAP5 POP POP PUSH1 0x20 DUP6 ADD CALLDATALOAD PUSH8 0xFFFFFFFFFFFFFFFF DUP2 GT ISZERO PUSH2 0x6F9 JUMPI PUSH2 0x6F8 PUSH2 0x465 JUMP JUMPDEST JUMPDEST PUSH2 0x705 DUP8 DUP3 DUP9 ADD PUSH2 0x63C JUMP JUMPDEST SWAP3 POP SWAP3 POP POP SWAP3 SWAP6 SWAP2 SWAP5 POP SWAP3 POP JUMP JUMPDEST PUSH1 0x0 DUP2 MLOAD SWAP1 POP SWAP2 SWAP1 POP JUMP JUMPDEST PUSH1 0x0 DUP3 DUP3 MSTORE PUSH1 0x20 DUP3 ADD SWAP1 POP SWAP3 SWAP2 POP POP JUMP JUMPDEST PUSH1 0x0 DUP2 SWAP1 POP PUSH1 0x20 DUP3 ADD SWAP1 POP SWAP2 SWAP1 POP JUMP JUMPDEST PUSH2 0x748 DUP2 PUSH2 0x4F5 JUMP JUMPDEST DUP3 MSTORE POP POP JUMP JUMPDEST PUSH1 0x0 PUSH2 0x75A DUP4 DUP4 PUSH2 0x73F JUMP JUMPDEST PUSH1 0x20 DUP4 ADD SWAP1 POP SWAP3 SWAP2 POP POP JUMP JUMPDEST PUSH1 0x0 PUSH1 0x20 DUP3 ADD SWAP1 POP SWAP2 SWAP1 POP JUMP JUMPDEST PUSH1 0x0 PUSH2 0x77E DUP3 PUSH2 0x713 JUMP JUMPDEST PUSH2 0x788 DUP2 DUP6 PUSH2 0x71E JUMP JUMPDEST SWAP4 POP PUSH2 0x793 DUP4 PUSH2 0x72F JUMP JUMPDEST DUP1 PUSH1 0x0 JUMPDEST DUP4 DUP2 LT ISZERO PUSH2 0x7C4 JUMPI DUP2 MLOAD PUSH2 0x7AB DUP9 DUP3 PUSH2 0x74E JUMP JUMPDEST SWAP8 POP PUSH2 0x7B6 DUP4 PUSH2 0x766 JUMP JUMPDEST SWAP3 POP POP PUSH1 0x1 DUP2 ADD SWAP1 POP PUSH2 0x797 JUMP JUMPDEST POP DUP6 SWAP4 POP POP POP POP SWAP3 SWAP2 POP POP JUMP JUMPDEST PUSH1 0x0 PUSH1 0x20 DUP3 ADD SWAP1 POP DUP2 DUP2 SUB PUSH1 0x0 DUP4 ADD MSTORE PUSH2 0x7EB DUP2 DUP5 PUSH2 0x773 JUMP JUMPDEST SWAP1 POP SWAP3 SWAP2 POP POP JUMP JUMPDEST PUSH32 0x4E487B7100000000000000000000000000000000000000000000000000000000 PUSH1 0x0 MSTORE PUSH1 0x22 PUSH1 0x4 MSTORE PUSH1 0x24 PUSH1 0x0 REVERT JUMPDEST PUSH1 0x0 PUSH1 0x2 DUP3 DIV SWAP1 POP PUSH1 0x1 DUP3 AND DUP1 PUSH2 0x83A JUMPI PUSH1 0x7F DUP3 AND SWAP2 POP JUMPDEST PUSH1 0x20 DUP3 LT DUP2 SUB PUSH2 0x84D JUMPI PUSH2 0x84C PUSH2 0x7F3 JUMP JUMPDEST JUMPDEST POP SWAP2 SWAP1 POP JUMP JUMPDEST PUSH32 0x4E487B7100000000000000000000000000000000000000000000000000000000 PUSH1 0x0 MSTORE PUSH1 0x41 PUSH1 0x4 MSTORE PUSH1 0x24 PUSH1 0x0 REVERT JUMPDEST PUSH1 0x0 DUP2 SWAP1 POP DUP2 PUSH1 0x0 MSTORE PUSH1 0x20 PUSH1 0x0 KECCAK256 SWAP1 POP SWAP2 SWAP1 POP JUMP JUMPDEST PUSH1 0x0 PUSH1 0x20 PUSH1 0x1F DUP4 ADD DIV SWAP1 POP SWAP2 SWAP1 POP JUMP JUMPDEST PUSH1 0x0 DUP3 DUP3 SHL SWAP1 POP SWAP3 SWAP2 POP POP JUMP JUMPDEST PUSH1 0x0 PUSH1 0x8 DUP4 MUL PUSH2 0x8E4 PUSH32 0xFFFFFFFFFFFFFFFFFFFFFFFFFFFFFFFFFFFFFFFFFFFFFFFFFFFFFFFFFFFFFFFF DUP3 PUSH2 0x8A7 JUMP JUMPDEST PUSH2 0x8EE DUP7 DUP4 PUSH2 0x8A7 JUMP JUMPDEST SWAP6 POP DUP1 NOT DUP5 AND SWAP4 POP DUP1 DUP7 AND DUP5 OR SWAP3 POP POP POP SWAP4 SWAP3 POP POP POP JUMP JUMPDEST PUSH1 0x0 DUP2 SWAP1 POP SWAP2 SWAP1 POP JUMP JUMPDEST PUSH1 0x0 PUSH2 0x92B PUSH2 0x926 PUSH2 0x921 DUP5 PUSH2 0x4F5 JUMP JUMPDEST PUSH2 0x906 JUMP JUMPDEST PUSH2 0x4F5 JUMP JUMPDEST SWAP1 POP SWAP2 SWAP1 POP JUMP JUMPDEST PUSH1 0x0 DUP2 SWAP1 POP SWAP2 SWAP1 POP JUMP JUMPDEST PUSH2 0x945 DUP4 PUSH2 0x910 JUMP JUMPDEST PUSH2 0x959 PUSH2 0x951 DUP3 PUSH2 0x932 JUMP JUMPDEST DUP5 DUP5 SLOAD PUSH2 0x8B4 JUMP JUMPDEST DUP3 SSTORE POP POP POP POP JUMP JUMPDEST PUSH1 0x0 SWAP1 JUMP JUMPDEST PUSH2 0x96E PUSH2 0x961 JUMP JUMPDEST PUSH2 0x979 DUP2 DUP5 DUP5 PUSH2 0x93C JUMP JUMPDEST POP POP POP JUMP JUMPDEST JUMPDEST DUP2 DUP2 LT ISZERO PUSH2 0x99D JUMPI PUSH2 0x992 PUSH1 0x0 DUP3 PUSH2 0x966 JUMP JUMPDEST PUSH1 0x1 DUP2 ADD SWAP1 POP PUSH2 0x97F JUMP JUMPDEST POP POP JUMP JUMPDEST PUSH1 0x1F DUP3 GT ISZERO PUSH2 0x9E2 JUMPI PUSH2 0x9B3 DUP2 PUSH2 0x882 JUMP JUMPDEST PUSH2 0x9BC DUP5 PUSH2 0x897 JUMP JUMPDEST DUP2 ADD PUSH1 0x20 DUP6 LT ISZERO PUSH2 0x9CB JUMPI DUP2 SWAP1 POP JUMPDEST PUSH2 0x9DF PUSH2 0x9D7 DUP6 PUSH2 0x897 JUMP JUMPDEST DUP4 ADD DUP3 PUSH2 0x97E JUMP JUMPDEST POP POP JUMPDEST POP POP POP JUMP JUMPDEST PUSH1 0x0 DUP3 DUP3 SHR SWAP1 POP SWAP3 SWAP2 POP POP JUMP JUMPDEST PUSH1 0x0 PUSH2 0xA05 PUSH1 0x0 NOT DUP5 PUSH1 0x8 MUL PUSH2 0x9E7 JUMP JUMPDEST NOT DUP1 DUP4 AND SWAP2 POP POP SWAP3 SWAP2 POP POP JUMP JUMPDEST PUSH1 0x0 PUSH2 0xA1E DUP4 DUP4 PUSH2 0x9F4 JUMP JUMPDEST SWAP2 POP DUP3 PUSH1 0x2 MUL DUP3 OR SWAP1 POP SWAP3 SWAP2 POP POP JUMP JUMPDEST PUSH2 0xA37 DUP3 PUSH2 0x50E JUMP JUMPDEST PUSH8 0xFFFFFFFFFFFFFFFF DUP2 GT ISZERO PUSH2 0xA50 JUMPI PUSH2 0xA4F PUSH2 0x853 JUMP JUMPDEST JUMPDEST PUSH2 0xA5A DUP3 SLOAD PUSH2 0x822 JUMP JUMPDEST PUSH2 0xA65 DUP3 DUP3 DUP6 PUSH2 0x9A1 JUMP JUMPDEST PUSH1 0x0 PUSH1 0x20 SWAP1 POP PUSH1 0x1F DUP4 GT PUSH1 0x1 DUP2 EQ PUSH2 0xA98 JUMPI PUSH1 0x0 DUP5 ISZERO PUSH2 0xA86 JUMPI DUP3 DUP8 ADD MLOAD SWAP1 POP JUMPDEST PUSH2 0xA90 DUP6 DUP3 PUSH2 0xA12 JUMP JUMPDEST DUP7 SSTORE POP PUSH2 0xAF8 JUMP JUMPDEST PUSH1 0x1F NOT DUP5 AND PUSH2 0xAA6 DUP7 PUSH2 0x882 JUMP JUMPDEST PUSH1 0x0 JUMPDEST DUP3 DUP2 LT ISZERO PUSH2 0xACE JUMPI DUP5 DUP10 ADD MLOAD DUP3 SSTORE PUSH1 0x1 DUP3 ADD SWAP2 POP PUSH1 0x20 DUP6 ADD SWAP5 POP PUSH1 0x20 DUP2 ADD SWAP1 POP PUSH2 0xAA9 JUMP JUMPDEST DUP7 DUP4 LT ISZERO PUSH2 0xAEB JUMPI DUP5 DUP10 ADD MLOAD PUSH2 0xAE7 PUSH1 0x1F DUP10 AND DUP3 PUSH2 0x9F4 JUMP JUMPDEST DUP4 SSTORE POP JUMPDEST PUSH1 0x1 PUSH1 0x2 DUP9 MUL ADD DUP9 SSTORE POP POP POP JUMPDEST POP POP POP POP POP POP JUMP JUMPDEST PUSH32 0x4E487B7100000000000000000000000000000000000000000000000000000000 PUSH1 0x0 MSTORE PUSH1 0x32 PUSH1 0x4 MSTORE PUSH1 0x24 PUSH1 0x0 REVERT INVALID LOG2 PUSH5 0x6970667358 0x22 SLT KECCAK256 SLT 0xC3 EXP 0x49 ISZERO SWAP14 MSIZE PUSH17 0x1D9F831BCF343B732A0D8A2487CEA20328 LOG4 0xEC 0xA6 0xC3 SUB PUSH7 0x5064736F6C6343 STOP ADDMOD 0xF STOP CALLER "
				},
				"gasEstimates": {
					"creation": {
						"codeDepositCost": "583400",
						"executionCost": "619",
						"totalCost": "584019"
					},
					"external": {
						"examples(uint256[],string)": "infinite",
						"myStructs(address)": "infinite"
					},
					"internal": {
						"_internal(uint256[] memory)": "infinite"
					}
				},
				"methodIdentifiers": {
					"examples(uint256[],string)": "fc277a95",
					"myStructs(address)": "b43c5d33"
				}
			},
			"storageLayout": {
				"storage": [
					{
						"astId": 11,
						"contract": "contracts/Week4/DataLocations.sol:DataLocations",
						"label": "myStructs",
						"offset": 0,
						"slot": "0",
						"type": "t_mapping(t_address,t_struct(MyStruct)6_storage)"
					}
				],
				"types": {
					"t_address": {
						"encoding": "inplace",
						"label": "address",
						"numberOfBytes": "20"
					},
					"t_mapping(t_address,t_struct(MyStruct)6_storage)": {
						"encoding": "mapping",
						"key": "t_address",
						"label": "mapping(address => struct DataLocations.MyStruct)",
						"numberOfBytes": "32",
						"value": "t_struct(MyStruct)6_storage"
					},
					"t_string_storage": {
						"encoding": "bytes",
						"label": "string",
						"numberOfBytes": "32"
					},
					"t_struct(MyStruct)6_storage": {
						"encoding": "inplace",
						"label": "struct DataLocations.MyStruct",
						"members": [
							{
								"astId": 3,
								"contract": "contracts/Week4/DataLocations.sol:DataLocations",
								"label": "foo",
								"offset": 0,
								"slot": "0",
								"type": "t_uint256"
							},
							{
								"astId": 5,
								"contract": "contracts/Week4/DataLocations.sol:DataLocations",
								"label": "text",
								"offset": 0,
								"slot": "1",
								"type": "t_string_storage"
							}
						],
						"numberOfBytes": "64"
					},
					"t_uint256": {
						"encoding": "inplace",
						"label": "uint256",
						"numberOfBytes": "32"
					}
				}
			},
			"userdoc": {
				"kind": "user",
				"methods": {},
				"version": 1
			}
		}
	}
}